:100000001AC1000049C1000047C1000045C10000FD
:1000100043C1000041C100003FC100003DC10000DC
:100020003BC1000039C1000037C1000035C10000EC
:1000300033C1000031C100002FC100002DC10000FC
:100040002BC1000029C1000027C1000025C100000C
:1000500023C1000021C100001FC100000C945826DC
:100060001BC100000C9434290C946A2915C10000AE
:1000700013C1000011C100000FC100000DC100003C
:100080000BC1000009C1000007C1000005C100004C
:100090000C94DB2C0C94112DFFC00000FDC000005F
:1000A000FBC00000F9C00000F7C00000F5C0000070
:1000B000F3C00000F1C00000EFC00000EDC0000080
:1000C000EBC00000E9C00000E7C00000E5C0000090
:1000D000E3C00000E1C00000DFC00000DDC00000A0
:1000E000DBC0000070277327622766276C27AA27CA
:1000F00077277B278127852789278F27932797278E
:10010000AA279D27A127A5277C3C3E5E2B3D3F2F9C
:100110005B5D3B2C2A225C0000000A0B02090C0DDF
:100120000E080703040100000000000000000000AA
:1001300000000000000000000000000000000000BF
:10014000000000001211100000000000000000007C
:10015000000000000000000000000000000001029C
:1001600010202008081020401020408002010201C9
:100170000804020101020408102040808040201081
:1001800008040201800402018040201008040201DA
:100190000804020101020408102040800102040842
:1001A000102040800505050507050808080802021B
:1001B00002020A0A08080404040401010101010101
:1001C00001010303030303030303040707070C0CE4
:1001D0000C0C0C0C0C0C02020202060606060606AB
:1001E00006060B0B0B0B0B0B0B0B00002200250064
:1001F00028002B002E003100340002010000050110
:1002000008010B0100002100240027002A002D0016
:100210003000330001010000040107010A01EE0172
:100220000F055509230B490C570CDB0D0B16EC1E63
:100230009C29B52B432D11241FBECFEFD1E2DEBF89
:10024000CDBF00E00CBF13E0A0E0B2E0E0E3F0E6D9
:1002500000E00BBF02C007900D92A03BB107D9F799
:1002600027E0A0EBB3E001C01D92A33CB207E1F789
:1002700012E0C6E3D2E000E006C022970109FE01C9
:100280000BBF0E94B82DCE31D10780E00807A9F737
:100290000E94CF2C0C941630B3CE8F929F92AF92C7
:1002A000BF92CF92DF92EF92FF920F931F93CF9363
:1002B000DF93CDB7DEB7E6970FB6F894DEBF0FBE7B
:1002C000CDBF7C018B0186E7C82E83E0D82E9DE050
:1002D000992E5B018FEFA81AB80A41E0B701CE0151
:1002E0004C960E94A415CE014C960E946B17882351
:1002F00009F461C0812C882D90E0801791073CF4AF
:1003000069E08FE796E00E94112C8394F4CFCE0130
:100310004C960E94FD16BC018FE796E00E94102CBF
:10032000CE014C960E94FF16882371F168E272E0BC
:100330008FE796E00E94352C8E8D9F8D9C838B835A
:1003400088A199A1AAA1BBA18D839E83AF83B88701
:100350008CA19DA1AEA1BFA189879A87AB87BC87DD
:10036000DA82C982FE01B896DE011D96892D0190C0
:100370000D928A95E1F78DA99EA99B8F8A8FB50171
:10038000CE0101968ADF12C06AE272E08FE796E042
:100390000E94102CCE014C960E941C17AB01BC0190
:1003A0002AE030E08FE796E00E94BE2CCE014C960A
:1003B0000E94591792CFE6960FB6F894DEBF0FBE93
:1003C000CDBFDF91CF911F910F91FF90EF90DF9004
:1003D000CF90BF90AF909F908F9008950F9300E0C3
:1003E00020E040E060E081ED93E00E948E2B86EB00
:1003F00093E00E94EA1660910A0270910B0280EB72
:1004000093E00F910C94B80CEF92FF920F931F930F
:10041000CF93DF93CDB7DEB7A7970FB6F894DEBFC3
:100420000FBECDBF40910E0250910F02662757FDBF
:100430006095762F20910C0282E297E00E94ED2ACF
:1004400040910E0250910F02662757FD6095762F5E
:1004500020910C028FE796E00E94ED2A60E172E0A5
:10046000CE0101960E949A2B64E172E0CE014C9677
:100470000E949A2B68E172E0CE0182960E949A2B2C
:100480008E010F5F1F4F9E01245E3F4FAE014E5DF8
:100490005F4F6CE172E08DEE93E00E94B00B80EB59
:1004A00093E00E94780C8FE796E00E94222C6AEF7E
:1004B00070E080E090E00E94D1266DE272E08FE76C
:1004C00096E00E94352C6AEC78E080E090E00E9493
:1004D000D1266CE372E08FE796E00E94102C6DEE5F
:1004E00073E0C8010E94240CB8018FE796E00E94D7
:1004F000452C8FE796E00E94222C69E472E08FE79A
:1005000096E00E94352C64E081E294E00E9406149B
:10051000811103C061E672E05CC060E872E08FE7C1
:1005200096E00E94352C21E048E252E061E274E05E
:10053000CE0101960E941B15EB80FC80F092B9035E
:10054000E092B8030D811E812F8138850093BA0394
:100550001093BB032093BC033093BD0349855A8598
:100560006B857C854093BE035093BF036093C003AB
:100570007093C1038DE0FE013D96A2ECB3E00190C3
:100580000D928A95E1F78A8D9B8D9093D00380938D
:10059000CF03FC82EB820D831E832F83388749872C
:1005A0005A876B877C8726E733E03A8329832DE0DF
:1005B000E2ECF3E0DE011D9601900D922A95E1F741
:1005C0009B8F8A8F60E070E0CE01019666DE6DE958
:1005D00072E08FE796E00E94352CA7960FB6F8944C
:1005E000DEBF0FBECDBFDF91CF911F910F91FF9066
:1005F000EF900895EF92FF920F931F93CF93DF93A5
:10060000CDB7DEB7A1970FB6F894DEBF0FBECDBF52
:100610007C018B0169EB72E00E941629882309F4A2
:10062000C0C061EC72E0CE014C960E94802866EC5E
:1006300072E08FE796E00E94352C4C8D5D8D21E0B5
:1006400061E274E0CE0101960E941B158B819C81B2
:100650009093B9038093B8038D819E81AF81B88553
:100660008093BA039093BB03A093BC03B093BD03E4
:1006700049855A856B857C854093BE035093BF03A3
:100680006093C0037093C1038DE0FE013D96A2EC20
:10069000B3E001900D928A95E1F78A8D9B8D90933E
:1006A000D0038093CF0386EB93E00E946B178823DF
:1006B00009F44BC06EED72E0CE0101960E948028D5
:1006C000BE01645E7F4FCE0101960E940529BC01E8
:1006D0008FE796E00E94252CCE0101960E941928F2
:1006E00066EE72E0CE0101960E948028BE01645E33
:1006F0007F4FCE0101960E940529BC018FE796E04D
:100700000E94252CCE0101960E94192886EB93E0C9
:100710000E942C17892B49F086EB93E00E947E16ED
:10072000682FC8010E94F228F1CF60EF72E08FE7D6
:1007300096E00E94352CB80182E297E00E94022CDC
:1007400086EB93E00E94591716C060E173E0CE017A
:1007500001960E948028BE01645E7F4FCE01019603
:100760000E940529BC018FE796E00E94252CCE014E
:1007700001960E9419286CE272E0C7010E94B2281B
:100780006CE272E0C8010E94B22882E297E00E9407
:10079000682A8FE796E00E94682ACE014C960E9454
:1007A0001928A1960FB6F894DEBF0FBECDBFDF911A
:1007B000CF911F910F91FF90EF9008951F93CF93CA
:1007C000DF93CDB7DEB7A5970FB6F894DEBF0FBEA7
:1007D000CDBF60EB73E0CE0101960E94730DCE0198
:1007E0000196BED3882309F48CC06CE272E0CE017E
:1007F00080960E9480286CE272E0CE014A960E94A8
:100800008028CE0101962ED5882309F472C0CE012E
:100810000196D3D3892B09F453C0CE010196D6D3C8
:10082000182F682FCE0180960E94F2281A3079F78F
:10083000BE01665E7F4FCE010E960E94AA28BE01C1
:10084000605E7F4FCE0144960E94AA28BE01625F7F
:100850007F4FCE014496CEDECE0144960E941928E9
:10086000CE010E960E941928BE01605E7F4F82E283
:1008700097E00E94022CBE01605E7F4F8FE796E0FA
:100880000E94022C6CE272E0CE0180960E94B22897
:1008900082E297E00E94682A8FE796E00E94682A29
:1008A000B6CF82E297E00E94F829182F682FCE0178
:1008B00001960E94112C1A3019F4CE010196C7D36B
:1008C00082E297E00E94DF291816190654F309C046
:1008D0008FE796E00E94F8298A3019F4CE0101963C
:1008E000B6D38FE796E00E94DF291816190684F325
:1008F00088CFCE014A960E941928CE0180960E9488
:100900001928A5960FB6F894DEBF0FBECDBFDF91B4
:10091000CF911F910895CF93CFB7F8948091DA03C8
:10092000811127C0E9EDF1E08491E3E9F1E09491D0
:10093000E82FF0E0EE0FFF1FEC5FFD4FA591B491A3
:100940008C91892321F461E085E30E94E42761E032
:1009500085E30E94AB278CB580618CBD8CB580642B
:100960008CBD61E084E30E94AB2761E083E30E94D9
:10097000AB278091DA038F5F8093DA03CFBFCF91EB
:100980000895FB014281538164817581FC0142839A
:10099000538364837583178216820895CF93FB0176
:1009A00081918111FDCFFB0180E090E020E030E0FB
:1009B000CAE06191662309F12430310564F56E3295
:1009C00071F48F3F910509F034F5DA01A20FB31FDE
:1009D00012968C932F5F3F4F80E090E0EACFDC01CE
:1009E000CA9FC001CB9F900D1124772767FD70959A
:1009F00060537109860F971FDCCF8F3F910509F077
:100A000054F4243031053CF4FA01E20FF31F8283E1
:100A100081E090E002C080E090E0CF9108950F93D4
:100A200000E020E040E060E08BED93E00E948E2B40
:100A30000F910895AF92BF92CF92DF92EF92FF9203
:100A40000F931F93CF93DF9300D0CDB7DEB76C0128
:100A50007B010E94A226F601778366838601085FE8
:100A60001F4FB6016A5F7F4F42E050E0C8018FD44C
:100A700081E090E09A83898342E050E0BE016F5F9D
:100A80007F4FC80184D480E091E09A83898342E05B
:100A900050E0BE016F5F7F4FC80179D41A8219827E
:100AA00042E050E0BE016F5F7F4FC80170D442E06A
:100AB00050E0BE016F5F7F4FC80169D442E050E053
:100AC000BE016F5F7F4FC80162D46701F60180816C
:100AD000882301F1F7016F018191811113C0560143
:100AE000AE18BF081A141B0484F4AB8241E050E036
:100AF000BE016D5F7F4FC8014AD4A501B701C8018F
:100B000046D403C08E3239F7EACF7601FFEFEF1AF1
:100B1000FF0ADCCF1B8241E050E0BE016D5F7F4FDA
:100B2000C80135D4E12CFF24F394FA82E98242E033
:100B300050E0BE016F5F7F4FC80129D4FA82E9827D
:100B400042E050E0BE016F5F7F4FC80120D481E0DA
:100B500090E00F900F900F90DF91CF911F910F9128
:100B6000FF90EF90DF90CF90BF90AF9008954F929D
:100B70005F926F927F928F929F92AF92BF92CF922D
:100B8000DF92EF92FF920F931F93CF93DF93CDB736
:100B9000DEB763970FB6F894DEBF0FBECDBF7C0102
:100BA0005B016A010E94A2262B013C018701085FBC
:100BB0001F4F4501A12CB12CC80187D41816190666
:100BC00094F00E94A2266419750986099709861671
:100BD0009706A806B906D0F062E370E080E090E0E6
:100BE0000E94D126E9CFF70142815381648175814A
:100BF000818D928DA38DB48D481759076A077B07A5
:100C000041F4858D968DC59721F406C08FEF9FEF37
:100C1000E0C08EEF9FEFDDC0C8016DD30C970CF4E0
:100C2000D6C04CE050E0BE016F5F7F4FC801ECD3EF
:100C30008B819C819827892798279A8B898BF7012C
:100C40004681578129813A814217530711F497FD54
:100C500005C0C8016AD38CEF9FEFBBC08F70927044
:100C6000892B29F0C80161D38BEF9FEFB2C0AF8011
:100C7000B884BA24AB24BA24A114B10419F0E12C2D
:100C8000F12C1DC0C80151D38AEF9FEFA2C041E0F3
:100C900050E0BE01635F7F4FC801B6D38D858111DF
:100CA00017C08D858111F3CFC80185D3C80183D3C7
:100CB000C80181D3C8017FD3FFEFEF1AFF0A8D81EE
:100CC0009E81982789279827E816F90600F309C01E
:100CD0008D859FEF980F9D87882319F3C8016BD3EB
:100CE000F7CFE12CF12C41E050E0BE016D5E7F4F6B
:100CF000C8018AD38B89982F907C59F4882361F09E
:100D00008B899FEF980F9B8B882331F0C80153D3B9
:100D1000F7CFC80150D31B8A8B898111E4CF42E001
:100D200050E0BE01615F7F4FC8016ED342E050E0EA
:100D3000BE01635F7F4FC80167D3C8013CD3C801C0
:100D40003AD3C80138D3C80136D342E050E0BE01DF
:100D50006F5E7F4FC80158D38F8598898115914068
:100D600029F48D859E858115914019F0812C912C57
:100D700014C089899A898115944029F0C801D5D277
:100D800087EF9FEF26C0B6016E5F7F4F44E050E0D3
:100D9000C8013AD381E090E01CC089899A899827DC
:100DA000892798278816990630F4C80104D32FEFB5
:100DB000821A920AF2CF8FEFE81AF80AEA14FB04BB
:100DC00009F091CFC801B1D286EF9FEF02C08DEF3D
:100DD0009FEF63960FB6F894DEBF0FBECDBFDF91D5
:100DE000CF911F910F91FF90EF90DF90CF90BF9028
:100DF000AF909F908F907F906F905F904F900895ED
:100E00008F929F92AF92BF92CF92DF92EF92FF921A
:100E10000F931F93CF93DF9300D000D0CDB7DEB7F1
:100E20008C015B016A01BADD4C01009709F057C0E3
:100E3000F80142815381648175818091DD03909135
:100E4000DE03A091DF03B091E003481759076A075A
:100E50007B0709F448C00E94A2267801F8E0EF0E53
:100E6000F11C6F7077277C5FC70104D3813009F0D4
:100E70003EC08EE993E09A838983F8018281938151
:100E8000A481B5818B839C83AD83BE8345E350E011
:100E9000BE016F5F7F4FC7016ED2892B19F4812C81
:100EA000912C1AC0B501C801C5DD892BC1F3C7015A
:100EB0006AD2892BA1F333E0A32EB12CA60168E8F6
:100EC00073E1C80154DE4C01F1E0AF1AB10821F022
:100ED0008F3F2FEF920791F3C70139D208C08824C2
:100EE0008394912C04C09EEF892E99249A94C40176
:100EF00026960FB6F894DEBF0FBECDBFDF91CF911F
:100F00001F910F91FF90EF90DF90CF90BF90AF9027
:100F10009F908F90089581E086270895862F0895E9
:100F2000DC01ED91FC91048CF58DE02D199591E09B
:100F300089270895CF93DF931F92CDB7DEB76983DA
:100F4000DC01ED91FC910280F381E02D41E050E065
:100F5000BE016F5F7F4F19950F90DF91CF9108957C
:100F600021E0FC018485843009F420E0822F08957B
:100F7000FC019485FB018485981303C081E09430C3
:100F800009F480E008950F931F93CF93DF93EC0152
:100F90008A018C85843021F00E940012892B39F45B
:100FA00081E090E09B838A8380E090E001C0C801EB
:100FB000DF91CF911F910F910895FC0184858430BA
:100FC00011F00C94DE1280E090E00895CF93DF934F
:100FD0001F92CDB7DEB741E050E0BE016F5F7F4F9B
:100FE000FC0184850E948412181619061CF489815C
:100FF00090E002C08FEF9FEF0F90DF91CF910895A7
:10100000FC0184850C9484120F931F93CF93DF937C
:101010001F92CDB7DEB78C01DC01ED91FC9104800D
:10102000F581E02D1995892B51F0BE016F5F7F4F3F
:10103000F80184850E940513898190E002C08FEF3A
:101040009FEF0F90DF91CF911F910F910895FC01B9
:1010500084850C943113CF92DF92EF92FF920F931D
:101060001F93CF93DF93CDB7DEB7AF970FB6F8944A
:10107000DEBF0FBECDBF7C018B016A01CE010196A0
:101080000E94842BCE0109966FD2CE018A960E94CF
:10109000842B6DEE73E0CE018496EBD3BE016C5DC4
:1010A0007F4FCE0101966DDCAE01465D5F4FB8010A
:1010B000CE010196A5DE81309105C1F4D701ED91F5
:1010C000FC910484F585E02D8EE993E09DA38CA32B
:1010D0000CA51DA52EA53FA50EA31FA328A739A7C4
:1010E000A601BE016C5D7F4FC7011995AF960FB683
:1010F000F894DEBF0FBECDBFDF91CF911F910F914E
:10110000FF90EF90DF90CF900895FC01262F13827F
:10111000128248EE53E060E070E0448355836683BA
:10112000778384E293E09183808324870895FC0190
:101130008485843011F00C94C61080E00895DF920D
:10114000EF92FF920F931F93CF93DF93EC017B01FC
:101150008A018C85843009F043C0D12C8D2D0E94EA
:10116000C610811102C0DC8607C08B7F8831D9F39D
:10117000D39484E0D812F2CF8C85843089F1209109
:101180002202309123022F5F3F4F11F420E030EC18
:101190003093230220932202409122025091230295
:1011A00020E061E00E940F11B7016E5F7F4FA80140
:1011B0008C850E948A11811103C084E08C8710C045
:1011C000CE01B5DF873149F061E070E080E090E06A
:1011D0000E94D126CE01ABDFEECF81E090E002C0CD
:1011E00080E090E0DF91CF911F910F91FF90EF9001
:1011F000DF900895CF92DF92EF92FF92CF93DF932B
:10120000EC018C85843039F10E94DD110E94A22608
:101210006B017C01CE018BDF882399F061E070E0E7
:1012200080E090E00E94D1260E94A2266C197D09E0
:101230008E099F09683E73408105910558F38C859E
:10124000C8D7EC85F0E0EE0FFF1FEB50FC4F11828A
:10125000108284E08C87DF91CF91FF90EF90DF9038
:10126000CF900895CF93DF93EC018C858430C9F043
:10127000CE015DDF8431A9F0882399F0883189F0AF
:101280008C3169F4E881F9810480F581E02DCE018B
:10129000199521E0892B09F420E0822F03C081E019
:1012A00001C080E0DF91CF9108950F9300E020E02E
:1012B00040E060E081EE93E00E948E2B0F91089554
:1012C000DC01ED91FC91008CF18DE02D19942EE95B
:1012D00033E0FC0131832083FB014189528963891A
:1012E0007489FC0142835383648375830895FC01F0
:1012F000858996890895FC01818D928D0895CF93FB
:10130000DF931F92CDB7DEB76983DC01ED91FC91CD
:101310000280F381E02D41E050E0BE016F5F7F4F1E
:1013200019950F90DF91CF910895CF93DF93EC0142
:10133000898D9A8D892B41F0E881F9810680F781AA
:10134000E02DCE011995F4CFDF91CF910895CF9381
:10135000DF93EC018C85843059F03BD7EC85F0E0CD
:10136000EE0FFF1FEB50FC4F1182108284E08C8740
:10137000DF91CF910895FC01108E178A6E5F7F4F29
:1013800084850C947613FC0184850C94BA13CF9356
:10139000DF93EC019A018F89988DAB01BC018C859C
:1013A0000E9432132F89388D280F391F388F2F8BC9
:1013B000DF91CF9108950F931F93CF93DF931F92E7
:1013C000CDB7DEB78C01FC01818D928D892B59F050
:1013D00041E050E0BE016F5F7F4F84850E94841220
:1013E000181619061CF08FEF9FEF08C0F801818DC9
:1013F000928D0197928F818F898190E00F90DF917C
:10140000CF911F910F910895CF93DF93EC01898DB8
:101410009A8D009719F48FEF9FEF10C04817590766
:1014200008F0AC018C850E948412181619069CF7EE
:10143000298D3A8D281B390B3A8F298FDF91CF9157
:101440000895CF93DF931F92CDB7DEB7FC01218DB6
:10145000328D232B49F0BE016F5F7F4F84850E9440
:101460000513898190E002C08FEF9FEF0F90DF910D
:10147000CF910895FF920F931F93CF93DF93EC01C9
:101480008B018C858430D1F4F12C8F2D7FD6811186
:1014900002C0FC8606C08831E1F3F39484E0F812C0
:1014A000F4CF8C85843051F01E870D871A8E198EEB
:1014B00020E0A80162E0B3D681E001C080E0DF91C6
:1014C000CF911F910F91FF9008950F931F93CF938A
:1014D000DF93CDB7DEB728970FB6F894DEBF0FBE07
:1014E000CDBF8C01DC01ED91FC910284F385E02DF0
:1014F0001995F80184850E94DE12181619063CF52C
:1015000048E050E0BE016F5F7F4FD8011C968C9180
:10151000FBD718161906ECF4BE016F5F7F4FC801A8
:101520000F960E94AA2B8D8190E0982F88272E81FC
:10153000820F911DF801968B858B8F8190E0982FFB
:1015400088272885820F911D928F818F02C080E0AD
:1015500090E028960FB6F894DEBF0FBECDBFDF91A6
:10156000CF911F910F910895FC011382128248EED2
:1015700053E060E070E0448355836683778388E4BA
:1015800093E09183808384E08487CF010F960C944D
:10159000842BCF92DF92EF92FF920F931F93CF9302
:1015A000DF93CDB7DEB7AF970FB6F894DEBF0FBEAF
:1015B000CDBF7C018B016A01CE0101960E94842B74
:1015C000CE010996D1DFCE018A960E94842B6DEE62
:1015D00073E0CE0184964DD1BE016C5D7F4FCE018C
:1015E0000196CFD9AE01465D5F4FB801CE0101969D
:1015F00007DC81309105C1F4D701ED91FC910088A1
:10160000F189E02D8EE993E09DA38CA30CA51DA587
:101610002EA53FA50EA31FA328A739A7A601BE018B
:101620006C5D7F4FC7011995AF960FB6F894DEBF7A
:101630000FBECDBFDF91CF911F910F91FF90EF9023
:10164000DF90CF9008950F9300E020E040E060E04D
:1016500087EE93E00E948E2B0F9108952091D9037D
:10166000222399F03FB7F8942091D903213059F4FF
:101670002DB32093D7034DB32091D8032095242375
:101680002DBB3FBF02C03093D7038CBD9DBD0895D5
:101690008091D903882361F09FB7F8942091D903F2
:1016A0008091D703213019F48DBB9FBF08958FBF60
:1016B000089544E050E0BC0181E090E01FC344E0A5
:1016C00050E0BC0185E090E019C344E050E0BC016B
:1016D0008FE090E013C38F929F92AF92BF92CF9210
:1016E000DF92EF92FF920F931F93CF93DF931F929E
:1016F0001F92CDB7DEB74C016A0159018FE094E02B
:1017000069837A838BD280E590E0A8DF46E050E0E1
:1017100069817A8189E090E0F1D2C6010296D5DF35
:10172000C8010296C6DFC7010296C9DFB1DFF50125
:101730004281538164817581F401428353836483C0
:1017400075830F900F90DF91CF911F910F91FF90B4
:10175000EF90DF90CF90BF90AF909F908F900895C3
:101760006F927F928F929F92AF92BF92CF92DF92B1
:10177000EF92FF920F931F93CF93DF93CDB7DEB716
:101780006E970FB6F894DEBF0FBECDBF6C015B0144
:101790007A014901380100E02FEF4FEF6FEFCE01E2
:1017A00049960E948E2B2EE933E03A8329838B8D54
:1017B0009C8DAD8DBE8D8B839C83AD83BE8338871E
:1017C0002F83F30182819381A481B58189879A87D0
:1017D000AB87BC873E872D87F40182819381A481EA
:1017E000B5818F87988BA98BBA8B3C8B2B8BF7019C
:1017F00042815381648175814D8B5E8B6F8B788FB5
:10180000CE0101967C018E01095F1F4F9E01235F6F
:101810003F4FAE014D5E5F4FB501C6015CDF6E9676
:101820000FB6F894DEBF0FBECDBFDF91CF911F91F1
:101830000F91FF90EF90DF90CF90BF90AF909F906F
:101840008F907F906F900895CF93DF93EC010E946B
:10185000842B80E590E002DFBE016E5F7F4F44E0A5
:1018600050E08FE090E069D313DFCE01DF91CF919C
:1018700008952EE933E0FC0131832083FB0142818E
:10188000538164817581FC01428353836483758332
:1018900008950F9300E020E040E060E08DEF93E0DA
:1018A0000E948E2B8DEE93E00F910C94842B0F935E
:1018B00000E020E040E060E083E094E00E948E2BB6
:1018C0000F910895CF93DF931F92CDB7DEB7698351
:1018D000DC01ED91FC910280F381E02D41E050E0CC
:1018E000BE016F5F7F4F19950F90DF91CF910895E3
:1018F000EF92FF920F931F93CF93DF93CDB7DEB795
:101900002D970FB6F894DEBF0FBECDBF7C0100E06F
:1019100010E0602FCE010196F8DBCE01019607DCC6
:10192000811114C0F7014481558120E061E0802FCE
:1019300076D4802FC2D4F70184819581F801EE0F0F
:10194000FF1FEB50FC4F9183808305C00F5F1F4F3B
:1019500004301105F1F62D960FB6F894DEBF0FBED8
:10196000CDBFDF91CF911F910F91FF90EF90089520
:10197000FC01138212828CE693E09183808375834D
:1019800064830895BF92CF92DF92EF92FF920F93FC
:101990001F93CF93DF93CDB7DEB72D970FB6F89493
:1019A000DEBF0FBECDBF8C0145EFC42E43E0D42E69
:1019B000B12CE12CF12C6B2DCE010196A6DBD601CA
:1019C0002D913D916D01F80184819581281739078A
:1019D00099F4CE010196ABDB843159F0CE0101962A
:1019E000A6DB8C3149F4CE010196E7DA892B99F018
:1019F00003C0EE24E394F12CB394F4E0BF12DBCFE8
:101A0000EF2869F4D801ED91FC910480F581E02D77
:101A1000C801199504C0CE010196ECDBEDCF2D96DF
:101A20000FB6F894DEBF0FBECDBFDF91CF911F91EF
:101A30000F91FF90EF90DF90CF90BF9008957F922D
:101A40008F929F92AF92BF92CF92DF92EF92FF92CE
:101A50000F931F93CF93DF93CDB7DEB72D970FB6BC
:101A6000F894DEBF0FBECDBF6C015B014A018ADF77
:101A700055EFE52E53E0F52E712C00E010E0672DB8
:101A8000CE01019642DBF701219131917F01F601F0
:101A9000848195812817390729F4CE01019647DB07
:101AA0008731C9F07394F4E07F12E9CFC8012D9615
:101AB0000FB6F894DEBF0FBECDBFDF91CF911F915F
:101AC0000F91FF90EF90DF90CF90BF90AF909F90DD
:101AD0008F907F900895A401B501CE01019653DA4D
:101AE000080F191FDFCFBF92CF92DF92EF92FF92C4
:101AF0000F931F93CF93DF93CDB7DEB72D970FB61C
:101B0000F894DEBF0FBECDBF8C016B01CB013ADF75
:101B100065EFE62E63E0F62EB12C6B2DCE0101961B
:101B2000F4DAF701219131917F01F60184819581E9
:101B30002817390741F5CE010196F9DA873111F0FE
:101B40008C3109F5CE01019638DA892BE1F08B81D1
:101B50009C81F801938382838D819E81AF81B885BA
:101B600084839583A683B78349855A856B857C8555
:101B7000408751876287738784E293E091838083F3
:101B80008D85848707C0B394F4E0BF12C6CF64E0AC
:101B9000C801BBDAC8012D960FB6F894DEBF0FBEA0
:101BA000CDBFDF91CF911F910F91FF90EF90DF900C
:101BB000CF90BF9008950F9300E020E040E060E0F8
:101BC00089E094E00E948E2B0F9108958EBD000055
:101BD0000DB407FEFDCF8EB508952C9808952C9A6C
:101BE00008951F93CF93DF931F921F92CDB7DEB757
:101BF000182F6A839983F1DF80EFE8DF9981892FBD
:101C0000E5DF812FE3DF6A81862FE0DFE8DF81E017
:101C10000F900F90DF91CF911F910895CF93DF9395
:101C2000EC016CE271E080E090E00E94D1260E941D
:101C30008B04249A8091D903882399F09FB7F89454
:101C40008091D903813059F48DB38093D7032DB39C
:101C50008091D803809582238DBB9FBF02C0909353
:101C6000D70380E58CBD1DBC60E880E090E0B9DF63
:101C700065E58BE190E0B5DF65E58AE190E0B1DFF5
:101C80008091D903882361F09FB7F8942091D903FC
:101C90008091D703213019F48DBB9FBF01C08FBF46
:101CA00080E090E49983888380E090E69987888734
:101CB00080E098E49B838A8380E098E69B878A870C
:101CC00080E090E59D838C8380E090E79D878C8702
:101CD00080E098E59F838E8380E098E79F878E87DA
:101CE000DF91CF910895FB01282F30E02C5F3F4F0B
:101CF000922F8827642F8E0F9F1F73CFCF92DF9272
:101D0000EF92FF920F931F93CF93DF93EC017A0131
:101D10008B016C01C40ED51ECC15DD0571F05DDFA5
:101D200080EF54DF8D2F52DF8C2F50DF2196F8018A
:101D300081918F014BDF53DFEFCFC701DF91CF914F
:101D40001F910F91FF90EF90DF90CF9008951F9318
:101D5000CF93DF931F92CDB7DEB7182F99833DDF66
:101D60008FE034DF9981892F31DF812F2FDF80E0F1
:101D70002DDF898334DF89810F90DF91CF911F910F
:101D80000895282F30E02C5F3F4F922F8827860F31
:101D9000971FDDCF1F93CF93DF93182F60E270E082
:101DA000F0DFC82FD0E061E270E0812FEADFDC2FA6
:101DB000CC279E01282BC901DF91CF911F91089557
:101DC000FF920F931F93CF93DF93F62EC0E0D0E0E6
:101DD0008F2DE0DF8C01009719F08F2DDBDFEC01F8
:101DE000C017D107A9F7CE01DF91CF911F910F91B5
:101DF000FF9008951F93CF93DF93182F66E270E052
:101E0000C0DFC82FD0E067E270E0812FBADFDC2F9F
:101E1000CC279E01282BC901DF91CF911F910895F6
:101E2000FF920F931F93CF93DF93F62EC0E0D0E085
:101E30008F2DE0DF8C01009719F08F2DDBDFEC0197
:101E4000C017D107A9F7CE01DF91CF911F910F9154
:101E5000FF9008956F927F929F92AF92BF92CF9220
:101E6000DF92EF92FF920F931F93CF93DF931F9216
:101E7000CDB7DEB7D82E962E3A01590164E270E054
:101E8000892D99837EDFE82EF12C65E270E0892DA3
:101E900078DFFE2CEE24E82AE60CF71C9701377059
:101EA0006D2C9981792E690C711C690C711CD30100
:101EB000ED91FC91E20FF31FC901800F911F81305A
:101EC000984098F0C12C48E0D42EC21AD30AA6013B
:101ED000B501CF0113DFA8014C195D09B5016C0DE7
:101EE0007D1DF3018081918103C0A801B501CF015F
:101EF00005DFE00EF11E4F2D64E270E0892DF3DE68
:101F00004E2D65E270E0892D0F90DF91CF911F91EA
:101F10000F91FF90EF90DF90CF90BF90AF909F9088
:101F20007F906F90E0CE0F931F9389019A0140E05C
:101F300050E090DF1F910F910895CF92DF92EF92C2
:101F4000FF920F931F93CF93DF93EC017A018B01E4
:101F50006C01C40ED51ECC15DD0579F03EDE8FE098
:101F600035DE8D2F33DE8C2F31DE219680E02EDEA4
:101F7000F80181938F0133DEEECFC701DF91CF915E
:101F80001F910F91FF90EF90DF90CF900895AF9247
:101F9000BF92CF92DF92EF92FF920F931F93CF9356
:101FA000DF931F921F92CDB7DEB75A834983590141
:101FB000E981FA81F7707C01E60EF11CE60EF11C56
:101FC000D70118968D919C9119978E0F9F1F98019C
:101FD0002E0F3F1F2130384090F0C12C68E0D62EE4
:101FE000CE1ADF0AA601B501A8DFA8014C195D09C8
:101FF000B5016C0D7D1DF7018085918502C0A8019A
:10200000B5010F900F90DF91CF911F910F91FF902D
:10201000EF90DF90CF90BF90AF908FCF8F929F9235
:10202000AF92BF92CF92DF92EF92FF920F931F93E6
:10203000CF93DF936C01962E5A017901802E68E2CE
:1020400070E0892D9EDEC82FD0E069E270E0892D16
:1020500098DEDC2FCC27C82B87019501AE01692DB6
:10206000C60195DF811018C0CE0DDF1D4D2F68E22F
:1020700070E0892D38DE4C2F69E270E0892DDF9108
:10208000CF911F910F91FF90EF90DF90CF90BF9075
:10209000AF909F908F9027CEDF91CF911F910F919E
:1020A000FF90EF90DF90CF90BF90AF909F908F9078
:1020B0000895CF93C62F61E070E08C2F14DE61E0AD
:1020C00070E08C2F5EDE8111FACFCF910895CF9210
:1020D000DF92EF92FF920F9330E0C12CF2E1DF2EFE
:1020E000FAE7EF2EF12C4C155D056E057F0540F4E7
:1020F000F694E794D794C7943F5F3630A1F737E062
:1021000041E04327211102C050E701C050E5242FD0
:1021100030E03595279523700C70202B252BFC0182
:102120002083417041830F91FF90EF90DF90CF901B
:10213000089590E0982F882744E050E0845F9B4FFB
:10214000DDCD62E070E01DCECF93DF93C82FD62F98
:10215000472F64E070E0C7DD4D2F65E070E08C2F05
:10216000DF91CF91C0CD462F62E070E0BCCDCF9320
:10217000DF93C82FD62F472F60E170E0B4DD4D2FDD
:1021800061E170E08C2FDF91CF91ADCD0F931F9364
:10219000CF93DF9300D0CDB7DEB7182F00E021E05A
:1021A00040E059E06DE370E0CE01019690DF898157
:1021B0009A8154DA63E070E0812FE3DD8B8368DA83
:1021C0008B810F900F900F90DF91CF911F910F9106
:1021D00008950F931F93CF93DF931F921F92CDB754
:1021E000DEB7182F00E021E040E059E06DE370E039
:1021F000CE0101966CDF89819A8130DA40E150E0AE
:10220000612F8FE094E055DF6FEF812FACDF40DA74
:102210000F900F90DF91CF911F910F910895CF9262
:10222000DF92EF92FF920F931F93CF93DF931F9252
:102230001F92CDB7DEB7182FD62E7A01C22E8FEFA0
:10224000860F853070F5812FC4DF00E021E040E08B
:1022500059E06DE370E0CE01019639DF89819A8102
:10226000FDD94D2D4C2960E070E0812F3CDDE1145B
:10227000F10411F0B7010AC060911F0470912004AD
:102280006F5F7F4F7093200460931F04812F5CDF8A
:1022900041E050E0612F8FE094E00BDFF9D981E05D
:1022A00001C080E00F900F90DF91CF911F910F91AF
:1022B000FF90EF90DF90CF9008950F931F93CF93EF
:1022C000DF931F921F92CDB7DEB7182F00E021E0F9
:1022D00040E059E06DE370E0CE010196F8DE8981BF
:1022E0009A81BCD963E070E0812F4BDD833119F016
:1022F000CFD980E008C042E050E0612F8FE094E049
:10230000D8DEC6D981E00F900F90DF91CF911F9159
:102310000F910895CF92DF92EF92FF920F931F9348
:10232000CF93DF931F921F92CDB7DEB7182F7B019B
:102330006A01FB0180818F3F51F481818F3F99F4C5
:1023400082818F3F81F483818F3F69F42AC081119C
:102350000AC0FB018181811106C08281811103C005
:1023600083818823F1F0C114D104D9F000E021E089
:1023700040E059E06DE370E0CE010196A8DE89816E
:102380009A816CD9B701812FD4DEB601812FEFDE9F
:1023900044E050E0612F8FE094E08BDE79D981E05A
:1023A00001C080E00F900F90DF91CF911F910F91AE
:1023B000FF90EF90DF90CF9008950F931F93CF93EE
:1023C000DF931F921F92CDB7DEB7182F00E021E0F8
:1023D00040E059E06DE370E0CE01019678DE89813E
:1023E0009A813CD948E050E0612F8FE094E061DEB3
:1023F0004FD90F900F90DF91CF911F910F910895BA
:10240000BF92CF92DF92EF92FF920F931F93CF93E1
:10241000DF9300D0CDB7DEB7B82E6B017A01413023
:1024200088E0580718F0E12C98E0F92E00E021E050
:1024300040E059E06DE370E0CE01019648DE89810D
:102440009A810CD96B2D8FE094E0BADC8C0163E0AB
:1024500070E08B2D96DC8B831BD98B81873111F03B
:102460008C3131F40E9457260E151F05F8F202C078
:10247000E12CF12C00E021E040E059E06DE370E058
:10248000CE01019624DE89819A81E8D89701A601C0
:102490006B2D8FE094E047DD40E250E06B2D8FE044
:1024A00094E007DE8B2D4DDE84FD1CC063E070E000
:1024B0008B2D67DC811106C0EBD88B2D8ADE80E086
:1024C00090E015C0E5D80E94572600E021E040E0EA
:1024D00059E06DE370E0CE010196F9DD89819A81C2
:1024E000BDD8E0CF60E18B2D3EDED2D8C7010F9082
:1024F0000F900F90DF91CF911F910F91FF90EF9070
:10250000DF90CF90BF900895AF92BF92CF92DF92AD
:10251000EF92FF920F931F93CF93DF931F921F921F
:10252000CDB7DEB7182F5B016A0100E021E040E083
:1025300059E06DE370E0CE010196C9DD89819A8191
:102540008DD8612F8FE094E06BDC7C01009799F4CB
:1025500063E070E0812F15DC843109F18823F9F004
:1025600021E030E08C3111F420E030E0EE24FF2453
:10257000E21AF30A14C0C816D9060CF476011E1428
:102580001F046CF400E09701A501612F8FE094E037
:1025900045DD40E450E0612F8FE094E08ADD78D89B
:1025A000C7010F900F90DF91CF911F910F91FF9076
:1025B000EF90DF90CF90BF90AF9008950F931F934F
:1025C000CF93DF9300D01F92CDB7DEB7182F00E076
:1025D00021E040E059E06DE370E0CE01019677DD47
:1025E00089819A813BD8612F8FE094E019DC8B833D
:1025F0009C834ED88B819C810F900F900F900F90F1
:10260000DF91CF911F910F910895EF92FF920F9359
:102610001F93CF93DF931F921F92CDB7DEB7182F72
:102620007B0100E021E040E059E06DE370E0CE0185
:1026300001964DDD89819A8111D801E021E030E0D9
:10264000A701612F8FE094E0E9DC22D881E090E0DF
:102650000F900F90DF91CF911F910F91FF90EF900E
:10266000089508959F92AF92BF92CF92DF92EF921A
:10267000FF920F931F93CF93DF931F921F92CDB7BB
:10268000DEB7982E6B015A01790100E021E040E0AD
:1026900059E06DE370E0CE01019619DD89819A81E0
:1026A0000E942E0B692D8FE094E08ADB8E159F052A
:1026B00028F4692D8FE094E083DB7C01870195018C
:1026C000A601692D8FE094E0C5DB0E94480BC7018D
:1026D0000F900F90DF91CF911F910F91FF90EF908E
:1026E000DF90CF90BF90AF909F900895CF92DF92F0
:1026F000EF92FF920F931F93CF93DF931F921F923E
:10270000CDB7DEB7182F7B016A01FB0180818111F3
:1027100009C08181811106C08281811103C083813A
:102720008823D9F0C114D104C1F000E021E040E0D9
:1027300059E06DE370E0CE010196C9DC89819A8190
:102740000E942E0BB701812FF4DCB601812F0FDD23
:102750000E94480B81E090E002C080E090E00F9082
:102760000F90DF91CF911F910F91FF90EF90DF902D
:10277000CF9008950F931F93CF93DF931F921F92D3
:10278000CDB7DEB7182F00E021E040E059E06DE35F
:1027900070E0CE0101969BDC89819A810E942E0B0C
:1027A00040E250E0612F8FE094E083DC812FC9DCB0
:1027B00084FD1EC0812FC5DC83FF08C068E1812F26
:1027C000D2DC0E94480B80E090E019C00E94480BC8
:1027D0000E94572600E021E040E059E06DE370E000
:1027E000CE01019674DC89819A810E942E0BDECF86
:1027F00060E1812FB8DC0E94480B81E090E00F90EF
:102800000F90DF91CF911F910F9108950F931F9318
:10281000CF93DF93EC01462F61E00E94041D8111EC
:1028200002C080E01BC08E01045F1F4F41E0BE016B
:10283000C801E7D6882359F0B801CE018A960E94D4
:10284000E81F91E0811101C090E0892F07C040E0AE
:10285000BE01C801D6D6882321F3EECFDF91CF91F8
:102860001F910F910895FC01DB0112968D919C91AF
:1028700013979383828386E893E0918380831496F1
:102880008C911497848315968C9115978583169651
:102890004D915D916D917C91199746835783608727
:1028A00071871A964D915D916D917C911D9742872C
:1028B0005387648775871E964D915D916D917C91CC
:1028C000519746875787608B718B52968C915297A0
:1028D000828B53964D915D916D917C915697438B70
:1028E000548B658B768B57964D915D916D917C9154
:1028F0005A97478B508F618F728F5B968D919C9109
:102900005C97948F838F08954F925F926F927F921E
:102910008F929F92AF92BF92CF92DF92EF92FF92EF
:102920000F931F93CF93DF93CDB7DEB7C754D10971
:102930000FB6F894DEBF0FBECDBF6C014A0139015E
:10294000665D7F4F5E018EE1A80EB11CC5018BDF75
:102950001C821B8286E893E09A8389831E8284010D
:10296000FE0131967F015A2C4B2C6FE270E0C801BA
:102970000E94EC2F0097E9F1F80120812F3219F421
:102980000F5F1F4FF2CF801B8D3008F08CE0A82E18
:10299000B12CA501B801CE01CB960E940730EBE324
:1029A000F0E0EC0FFD1FEA0DFB1D1082C7010E9435
:1029B0009D2221E0AE01455C5F4F652D742DC7015E
:1029C0000E94CC23811109C0F6011382128286E88D
:1029D00093E091838083158215C00A0D1B1D852D00
:1029E000942D0E949D22C2015E2C4F2CE92EF82EC0
:1029F000BCCF08191909F30111830083652D742DCB
:102A0000C60131DFC601C95BDF4F0FB6F894DEBFE8
:102A10000FBECDBFDF91CF911F910F91FF90EF902F
:102A2000DF90CF90BF90AF909F908F907F906F90EE
:102A30005F904F9008959F92AF92BF92CF92DF9296
:102A4000EF92FF920F931F93CF93DF93CDB7DEB733
:102A5000C955D1090FB6F894DEBF0FBECDBF7C01BA
:102A60006B015A01922E9E01285A3F4FCE01CB9600
:102A70004BDF6A960EAD1FAD6A970A0D1B1DF8015C
:102A80008081811109C0BE01655C7F4FCE01019636
:102A9000EADE48E252E03FC019A218A286E893E0BD
:102AA0009F8F8E8F1BA221968FAD2197811103C01E
:102AB000C70190D135C08250823060F4B601665DA6
:102AC0007F4F292DA801CE014E960E94CC23811163
:102AD00010C0EECF292DA801BE01655C7F4FCE014D
:102AE0004E960E94CC23882319F3CE01CB960E94E8
:102AF0009D22892D867041F049A95AA96BA97CA90C
:102B0000CE014E960E94BB21BE01625E7F4FCE0178
:102B10000196A9DEA801BE016F5F7F4FC70121D1D9
:102B2000C701C75ADF4F0FB6F894DEBF0FBECDBF47
:102B3000DF91CF911F910F91FF90EF90DF90CF9099
:102B4000BF90AF909F900895DF92EF92FF920F9306
:102B50001F93CF93DF93CDB7DEB7C756D1090FB61A
:102B6000F894DEBF0FBECDBF8C017B01D42EBE0119
:102B70006F5F7F4FF701818D928D0E943E21181665
:102B8000C4F589818823A9F1853E89F38E3279F3D2
:102B90008C8583FDECCF22961FAE1EAE229786E871
:102BA00093E09FAF8EAF24961FAE2497BE01655A67
:102BB0007F4FCE0101960E94921FF701618D728DA9
:102BC0002D2DAE01455A5F4FCE01CE960E94CC23EB
:102BD000882379F0BE01625C7F4FCE01819643DE8F
:102BE000AE01455A5F4FBE016F5D7F4FC801B9D03E
:102BF00002C0C801EFD0C801C959DF4F0FB6F89421
:102C0000DEBF0FBECDBFDF91CF911F910F91FF901F
:102C1000EF90DF90089510922604109227041092EE
:102C20002A0410922C0482E090E0A0E0B0E08093AF
:102C30002D0490932E04A0932F04B093300410928F
:102C4000440410924E0410924D0486E893E0909351
:102C50004C0480934B04109250040895CF93DF935B
:102C60001F92CDB7DEB76983DC01ED91FC91028044
:102C7000F381E02D41E050E0BE016F5F7F4F199579
:102C80000F90DF91CF910895CF93DF93EC01898D61
:102C90009A8D009759F0FC01138212820E94AC2495
:102CA000E98DFA8D22813381232B31F081E090E090
:102CB0009B838A8380E090E0DF91CF910895FC01AF
:102CC000818D928D009711F00C9457220895CF9327
:102CD000DF931F92CDB7DEB741E050E0BE016F5FDA
:102CE0007F4F0E943720019719F4898190E002C03C
:102CF0008FEF9FEF0F90DF91CF910895FC01818DB1
:102D0000928D009709F0E3CF8FEF9FEF08950F9317
:102D10001F93CF93DF938C01FC01818D928D0097DF
:102D2000B1F0D5DFEC018F3FFFEF9F0799F0F8017D
:102D3000818D928DFC014285538564857585415056
:102D40005109610971090E94BB21CE0105C080E0D3
:102D500090E002C08FEF9FEFDF91CF911F910F9115
:102D60000895CF92DF92EF92FF920F931F93CF932C
:102D7000DF93EC017B016A011B821A8208EE13E0EB
:102D800020E030E00C831D832E833F8386E793E0B1
:102D9000998388838DE190E00E94CB2D9A8F898F53
:102DA000009779F02DE1F701DC0101900D922A9551
:102DB000E1F74CE050E0B601CE010C960E940730DE
:102DC000188EDF91CF911F910F91FF90EF90DF90C0
:102DD000CF900895FC011382128248EE53E060E028
:102DE00070E0448355836683778386E793E091831D
:102DF0008083128E118E148608950C960895DC013E
:102E00005996ED91FC915A97309721F081E0958188
:102E1000923008F480E00895DC015996ED91FC9120
:102E20005A97309729F06285738584859585089532
:102E30006FEF7FEFCB010895DC015996ED91FC9186
:102E40005A97309729F063897489858996890895FE
:102E500060E070E0CB010895CF92DF92EF92FF9295
:102E6000CF93DF93EC01898D9A8D892BC9F0CE0128
:102E7000E3DF6B017C01CE01CFDFA7019601261BAA
:102E8000370B480B590BDA01C901811530E893075C
:102E9000A105B10538F08FEF9FE7A0E0B0E002C0D8
:102EA00080E090E0DF91CF91FF90EF90DF90CF90A6
:102EB0000895CF93DF93EC01898D9A8D009741F0AF
:102EC0000E949D22898D9A8D0E94632E1A8E198EE2
:102ED000DF91CF910895DC015996ED91FC915A97BD
:102EE000309721F081E09581911101C080E0089533
:102EF00080916E04882389F140912402509125022B
:102F0000609126027091270221E734E080916F04DE
:102F1000909170041AD7882311F140916A0450915E
:102F20006B0460916C0470916D044115510561054D
:102F3000710589F021E734E080916F04909170046D
:102F400004D7882361F010926A0410926B041092E7
:102F50006C0410926D0410926E0481E0089580E07C
:102F60000895CF92DF92EF92FF92CF936B017C0195
:102F7000C42F8091240290912502A0912602B09145
:102F800027028C159D05AE05BF05C1F0B1DF81118B
:102F900002C080E019C021E734E0B701A6018091AA
:102FA0006F049091700480D6882399F3C092240214
:102FB000D0922502E0922602F092270280916E04C0
:102FC0008C2B80936E0481E0CF91FF90EF90DF9087
:102FD000CF900895CF92DF92EF92FF926B017C0128
:102FE00087DF8823B1F0E1E7F4E0119286E0E13772
:102FF000F807D9F7C0922402D0922502E092260267
:10300000F092270280916E04816080936E0481E0CB
:1030100001C080E0FF90EF90DF90CF9008958F92F5
:103020009F92AF92BF92CF92DF92EF92FF920F9357
:103030001F93CF93DF938C016A017B01E901FC01AF
:1030400081859285A385B4850196A11DB11D841744
:103050009507A607B70710F480E057C0F801438929
:103060005489658976898789803129F4BB27AF2DFA
:103070009E2D8D2D09C0D701C60127E0B695A795D5
:10308000979587952A95D1F74C015D01840E951E81
:10309000A61EB71EC501B40180902402909025029F
:1030A000A0902602B0902702681579058A059B0535
:1030B00089F4F8018789803191F4DD24EE24FF241E
:1030C000F601EE0FFF1FEF58FB4F80819181A0E0CA
:1030D000B0E016C040E045DF8111EBCFBDCFE894F2
:1030E000C7F8DD24EE24FF24F601EE0FFF1FEE0FDC
:1030F000FF1FEF58FB4F80819181A281B381BF7088
:1031000088839983AA83BB8381E0DF91CF911F914C
:103110000F91FF90EF90DF90CF90BF90AF909F9076
:103120008F9008954F925F926F927F92AF92BF926D
:10313000CF92DF92EF92FF920F931F93CF93DF9383
:1031400000D01F92CDB7DEB78C0149835A836B83C1
:103150007C835901C12CD12C7601412C42E0542EA4
:10316000612C712C49815A816B817C819E012F5F7A
:103170003F4FC80154DF882359F1D301C201F80140
:10318000058404C0880F991FAA1FBB1F0A94D2F799
:10319000C80ED91EEA1EFB1E49815A816B817C81B3
:1031A0008789803129F488EF9FEFA0E0B0E004C068
:1031B00088EF9FEFAFEFBFE0481759076A077B071B
:1031C00088F2F501C082D182E282F38281E001C0FF
:1031D00080E00F900F900F900F90DF91CF911F9193
:1031E0000F91FF90EF90DF90CF90BF90AF907F90C6
:1031F0006F905F904F9008954F925F926F927F9281
:103200008F929F92AF92BF92CF92DF92EF92FF92F6
:103210000F931F93CF93DF93EC016A017B01280189
:103220003901423051056105710508F473C04985C3
:103230005A856B857C854F5F5F4F6F4F7F4F4C1575
:103240005D056E057F0508F465C08B889C88AD8898
:10325000BE888F89803129F477276F2D5E2D4D2D03
:1032600009C0B701A601E7E07695679557954795A0
:10327000EA95D1F7840E951EA61EB71E4091240232
:1032800050912502609126027091270284169506BE
:10329000A606B70671F48F89803191F4DD24EE24FF
:1032A000FF24F601EE0FFF1FEF58FB4F51824082C3
:1032B00017C040E0C501B40154DE8111ECCF2AC033
:1032C000E894C7F8DD24EE24FF24F601EE0FFF1F7B
:1032D000EE0FFF1FEF58FB4F4082518262827382D4
:1032E00080916E04816080936E048A89823080F0C0
:1032F0008D819E81AF81B885880D991DAA1DBB1D4A
:1033000080936A0490936B04A0936C04B0936D0453
:1033100081E001C080E0DF91CF911F910F91FF907C
:10332000EF90DF90CF90BF90AF909F908F907F9065
:103330006F905F904F9008952F923F924F925F92BF
:103340006F927F929F92AF92BF92CF92DF92EF9255
:10335000FF920F931F93CF93DF93CDB7DEB76097A4
:103360000FB6F894DEBF0FBECDBF5C014D875E8700
:103370006F87788B1901D9014D905D906D907C908D
:10338000411451046104710431F0BFEF4B1A5B0A20
:103390006B0A7B0A10C0FC01408051806280738000
:1033A000992493940D851E852F8538890130110548
:1033B0002105310509F0912CD50119962D913D91EA
:1033C0004D915C911C972F5F3F4F4F4F5F4F298767
:1033D0003A874B875C87730162011D821E821F82C0
:1033E0001886F50181859285A385B4850D811E819E
:1033F0002F813885081719072A073B0708F054C0A2
:1034000029853A854B855C852C153D054E055F0564
:1034100050F4A2E0CA2ED12CE12CF12CB2E04B2EBC
:10342000512C612C712C9E012F5F3F4FB701A601DB
:10343000C501F5DD8823C1F149815A816B817C8109
:10344000D701C6010196A11DB11D452B462B472B67
:1034500019F02C013D010FC0AC01BD014419550903
:10346000660977090D851E852F8538894017510714
:103470006207730779F02D813E814F8158852F5F58
:103480003F4F4F4F5F4F2D833E834F8358876C01D3
:103490007D01A7CF0FEF1FEF2FEF3FE0B701A60190
:1034A000C501AADE811117C080E03FC0D701C60167
:1034B0000197A109B1098D839E83AF83B8879701D6
:1034C0008601AC01BD01C50197DE882369F3CD807B
:1034D000DE80EF80F8844C145D046E047F0430F3CA
:1034E000D1014D915D916D917C9141155105610521
:1034F000710599F4F10140825182628273829920B0
:1035000099F0FFEF4F1A5F0A6F0A7F0AD5014D92BB
:103510005D926D927C92139707C093018201C50161
:103520006BDE8111E7CFC0CF81E060960FB6F894D3
:10353000DEBF0FBECDBFDF91CF911F910F91FF90E6
:10354000EF90DF90CF90BF90AF909F907F906F9063
:103550005F904F903F902F900895AF92BF92CF927F
:10356000DF92EF92FF920F931F93CF93DF9300D0E0
:103570001F92CDB7DEB75C016A017B0182E090E06B
:10358000A0E0B0E0F50180839183A283B3839E0124
:103590002F5F3F4FB701A601C50141DD882309F127
:1035A00000E010E09801B701A601C50125DE8823DF
:1035B000C1F0C980DA80EB80FC80F5018789803119
:1035C00029F488EF9FEFA0E0B0E004C088EF9FEF00
:1035D000AFEFBFE0C816D906EA06FB06C0F281E0ED
:1035E00001C080E00F900F900F900F90DF91CF916E
:1035F0001F910F91FF90EF90DF90CF90BF90AF9011
:1036000008958F929F92AF92BF92CF92DF92EF92E6
:10361000FF920F931F93CF93DF93EC01142F7093BE
:10362000700460936F04442339F1453010F080E05A
:10363000EDC040E060E070E0CB0193DC8823B9F39B
:1036400020E1129FF0011124E15EF94F80818F7714
:1036500071F784859585A685B78584369105A10582
:10366000B10528F3C084D184E284F384C114D10469
:10367000E104F10421F4DBCFC12CD12C760140E030
:10368000C701B6016EDC882391F280917C04909191
:103690007D048115924059F630918104332339F22B
:1036A00080917F0490918004892B09F4C0CF2091F0
:1036B0007E04222309F4BBCF3A8B2C831D8630E095
:1036C00041E050E06D85062FCA01062E02C0880F2A
:1036D000991F0A94E2F72817390731F081E0860F25
:1036E0008D87683078F3A3CF2091870430918804C8
:1036F0002115310519F040E050E008C020919504F3
:103700003091960440919704509198042D833E8304
:103710004F83588780917F04909180044601570120
:10372000880E991EA11CB11C8B8A9C8AAD8ABE8A08
:10373000E0918204F0918304F98FE88FA0918104D5
:10374000B0E00E94AE2D680D791D8A1D9B1D6A8F09
:103750007B8F8C8F9D8F15E0EE0FFF1F1A95E1F781
:10376000E150FE4FEF2FFF27E695DC01CB018E0FD6
:103770009F1FA11DB11D8E879F87A88BB98B80903D
:103780008404909085048114910419F0A12CB12C2B
:1037900008C08090910490909204A0909304B090FF
:1037A0009404A7019601281B390B4A0B5B0BDA0125
:1037B000C901880D991DAA1DBB1D04C0B695A7950A
:1037C000979587950A95D2F789879A87AB87BC87A3
:1037D000853F3FE09307A105B10510F48CE014C0CC
:1037E000853F9F4FA105B10510F480E10DC0809188
:1037F0009D0490919E04A0919F04B091A0048A8F93
:103800009B8FAC8FBD8F80E28F8B81E0DF91CF915A
:103810001F910F91FF90EF90DF90CF90BF90AF90EE
:103820009F908F9008959FB7F8942091D90380912D
:10383000D703213019F48DBB9FBF08958FBF089522
:103840008FEF0C94E60D61E0FC0184810E94E42777
:1038500080917106882331F0109271068091D9030E
:103860008111E1CF0895CF93DF93EC018091710630
:10387000811109C081E08093710680917206909158
:1038800073060E942E0B60E08C81DF91CF910C9427
:10389000E427CF93DF93EC018E81882379F08F8129
:1038A00098859C012F5F3F4F38872F83823092404D
:1038B00010F4C6DFF4CFCE01C6DF1E82DF91CF91B8
:1038C0000895673028F026E1FC01258380E0089503
:1038D000623081F030F4662359F06130B1F480E554
:1038E00015C0643059F040F0653079F482E50EC0BF
:1038F00080E505C081E503C081E508C082E58093CD
:10390000720681E080937306089583E580937206C2
:103910001092730681E008950F931F93CF93DF9366
:10392000EB010E94A2268B018BDF8F3F49F00E94A2
:10393000A226601B710B6C177D07B0F380E001C0FD
:1039400081E0DF91CF911F910F910895CF92DF9287
:10395000FF920F931F93CF93DF9300D01F92CDB7A9
:10396000DEB76C01F62E29833A834B835C8391DFAB
:10397000C60179DF6CE271E0C601CEDF8F2D806475
:103980000E94E60D08E110E05C814B813A812981BB
:10399000DA01C901002E04C0B695A79597958795C1
:1039A0000A94D2F729833A834B835C830E94E60D05
:1039B0000850110929813A814B815C81083F8FEFC2
:1039C000180731F7FF2029F0E8E0FE1621F08FEF0D
:1039D00003C085E901C087E80E94E60D10E030DFF2
:1039E000F601828787FF04C01F3F11F01F5FF7CFEA
:1039F0000F900F900F900F90DF91CF911F910F912B
:103A0000FF90DF90CF900895BF92CF92DF92EF9218
:103A1000FF920F931F93CF93DF93EC01B62E1B867B
:103A200019861E821D824C830E94A2268B0161E0B2
:103A30008C810E94AB2761E08C810E94E4270E9468
:103A40008B0482E580937206109273068091720651
:103A5000909173060E942E0B2AE0F22E8FEF0E94A7
:103A6000E60DFA94D9F78091D9038111DCDECE01FD
:103A7000FADE20E030E0A90160E0CE0167DFF82E39
:103A80008A8781E0F81649F00E94A226601B710B1C
:103A9000613D774070F381E046C02AEA31E040E0C2
:103AA00050E068E0CE0152DF82FF02C0FB860CC00E
:103AB00094E0F92EC5DE8A87FA94E1F78A3A11F08C
:103AC00082E031C082E08B878B85823031F4C12C5B
:103AD000D12CE12C80E4F82E03C0C12CD12C76012E
:103AE00020E030E0A90167E3CE0130DFA7019601B5
:103AF00069E2CE012BDF8A87882349F00E94A22643
:103B0000601B710B613D774058F388E00CC08B85DA
:103B1000823001F520E030E0A9016AE3CE0116DF32
:103B2000882379F086E08D83CE018DDE80E0DF9101
:103B3000CF911F910F91FF90EF90DF90CF90BF90AA
:103B400008957EDE807C803C11F483E08B8778DEF4
:103B500077DE76DECE0177DE6B2DCE01DF91CF9161
:103B60001F910F91FF90EF90DF90CF90BF90A9CE63
:103B70000F931F93CF93DF93EC010E94A2268B013A
:103B80005FDE8A878F3F49F40E94A226601B710B7B
:103B90006D327140A8F38FE003C08E3F31F08DE0AD
:103BA0008D83CE0150DE80E001C081E0DF91CF91B6
:103BB0001F910F910895CF92DF92EF92FF920F9392
:103BC0001F93CF93DF93EC0169010115110509F4EF
:103BD0005DC0C801820F931F8130924008F058C029
:103BE0008E81882371F088819981AA81BB814817D1
:103BF00059076A077B0729F48F819885C816D9066B
:103C000000F5488359836A837B838B85833039F041
:103C100039E0440F551F661F771F3A95D1F79A0177
:103C2000AB0161E1CE0192DE882319F083E08D8340
:103C30002FC0CE019DDF882359F118861F8281E0B5
:103C40008E838F8198858C159D0538F4F9DD8F81E1
:103C50009885019698878F83F4CF6701E00EF11E57
:103C6000CE14DF0429F0ECDDF60181936F01F8CF6B
:103C70008F819885800F911F98878F8329852223B4
:103C800019F08115924010F0CE0103DE81E003C0EF
:103C9000CE01D9DD80E0DF91CF911F910F91FF9090
:103CA000EF90DF90CF900895EF92FF920F931F93C4
:103CB000790100E012E020E030E07DDF1F910F91FC
:103CC000FF90EF900895CF92DF92EF92FF920F93C3
:103CD0001F93CF93DF931F921F92CDB7DEB78C0156
:103CE000862F49835A830E94E60D4981C42E5A814A
:103CF000D52EE12CF12CF60181916F010E94E60D89
:103D0000FFEFEF1AFF0AE11482E0F806A1F78FEF48
:103D10000E94E60D8FEF0E94E60D92DDF80182878A
:103D20008F71853031F081E18583C8018CDD80E0C1
:103D300001C081E00F900F90DF91CF911F910F9103
:103D4000FF90EF90DF90CF9008950F931F93CF9344
:103D5000DF93EC018901411551056105710511F4ED
:103D600082E12DC08B85833039F089E0440F551FE7
:103D7000661F771F8A95D1F79A01AB0168E1CE01E2
:103D8000E5DD882311F084E01AC0A8016EEFCE01B2
:103D90009ADF8823A9F068E572E0CE01BDDD8111CC
:103DA00002C085E10CC020E030E0A9016DE0CE0149
:103DB000CDDD811103C044DD882331F084E18D83A2
:103DC000CE0141DD80E003C0CE013DDD81E0DF9129
:103DD000CF911F910F91089580E580937206109204
:103DE00073060895CF93DF93EC019C012A5F3F4F48
:103DF00041E050E060E070E08B8D9C8D9DDA88237F
:103E0000A1F04F89588D698D7A8D452B462B472B14
:103E100071F44E815F81688579854F8B588F698FEA
:103E20007A8F8C8180688C8302C080E001C081E041
:103E3000DF91CF910895CF92DF92EF92FF921F937F
:103E4000CF93DF93EC01CEDF811102C080E04AC046
:103E5000EB8DFC8DCE80DF80E884F98482E0C81A87
:103E6000D108E108F108058404C0CC0CDD1CEE1C6F
:103E7000FF1C0A94D2F74685578560897189C40E64
:103E8000D51EE61EF71E148181E0C81AD108E1088C
:103E9000F108112359F0C701B601610F711D811D91
:103EA000911D98D8882391F21150F3CFEB8DFC8DA2
:103EB000C12C82E0D82EE12CF12C058404C0CC0C5E
:103EC000DD1CEE1CFF1C0A94D2F74B895C896D89BE
:103ED0007E894C0D5D1D6E1D7F1D4B8B5C8B6D8B2C
:103EE0007E8B81E0DF91CF911F91FF90EF90DF906B
:103EF000CF900895CF93DF93EC01462F6E857F8599
:103F0000888999892ED8882341F08A8920E2829F66
:103F1000C00111248F589B4F02C080E090E0DF91D8
:103F2000CF91089530E020E04EE2DC015C91503208
:103F300071F0383029F4FB01E20FF11D40832F5F4F
:103F4000FB01E20FF11DDC015C9150832F5F3F5FAD
:103F500001963B3051F7FB01E20FF11D10820895ED
:103F6000282FFB018BE030E231938150E9F7A22F3B
:103F7000B92F20E037E09D91992319F19E3219F075
:103F8000E8E0F1E008C03A3011F128E03AE0F3CF80
:103F900031964917E1F044914111FACF3217B8F048
:103FA0004FED490F4E3598F441E0420FFB01E20F0F
:103FB000F11D2FE9290F2A3108F490529083242F04
:103FC000DACF81E0FB019081903209F480E008951E
:103FD0000F931F93CF93DF93EC018B018D81882387
:103FE00011F080E03FC0FB0187898031B1F482E0AD
:103FF0008D831F8A188E198E1A8E408D518D60E028
:1040000070E095E0440F551F661F771F9A95D1F712
:104010004B8B5C8B6D8B7E8B14C0803211F783E0F1
:104020008D83FB01428D538D648D758D4F8B588F21
:10403000698F7A8F9E012D5E3F4FC80173D8882308
:1040400081F21C8F0B8F81E08C831E821F82188669
:1040500019861A861B861C861D861E861F86188A50
:10406000198A1A8ADF91CF911F910F9108952F928B
:104070003F924F925F926F927F928F929F92AF92F8
:10408000BF92CF92DF92EF92FF920F931F93CF9345
:10409000DF93EC016B015A018D81811103C08FEF19
:1040A0009FEFD9C08C8180FFFACF4B895C896D89E5
:1040B0007E898A859B85AC85BD852501612C712C07
:1040C0008A019B01081B190B2A0B3B0B04151505D4
:1040D0002605370518F45A01A81AB90A25011E0148
:1040E00026E0220E311C4114510409F47BC04A859C
:1040F0005B856C857D854A0181E09822ED818A018E
:104100009B01F9E03695279517950795FA95D1F714
:104110008B8D9C8DE23051F4FC01628D738D848D0A
:10412000958D600F711F821F931F3EC0FC0174802C
:104130007A94702281149104C9F4711017C0452B30
:10414000462B472B49F48F89988DA98DBA8D8E8384
:104150009F83A887B9870AC04E815F81688579856A
:1041600091010E940F18882309F499CFEB8DFC8DE3
:104170006E817F81888599856250710981099109D5
:10418000058404C0660F771F881F991F0A94D2F711
:104190000685178520893189600F711F821F931F43
:1041A000670D711D811D911D20E032E0281939092C
:1041B00032012415350508F439012C8126FD04C08F
:1041C0006114F2E07F0699F5009124021091250216
:1041D000209126023091270260177107820793070A
:1041E00019F425C0C50137C0760183019401AB01E4
:1041F000BC0180916F0490917004DDDC882309F488
:104200004ECFC60CD71C04C0E81BF90BCE0EDF1E28
:104210008A859B85AC85BD85860D971DA11DB11D29
:104220008A879B87AC87BD87461857085CCF40E0DC
:104230000E94B117882309F432CFC4018F589B4FD5
:10424000D6019C01260D371DFC01E217F307E1F2B0
:1042500041914D93FACFDF91CF911F910F91FF9034
:10426000EF90DF90CF90BF90AF909F908F907F9016
:104270006F905F904F903F902F9008950F931F93F2
:10428000CF93DF93EC018B018D81823010F48FEF9F
:1042900023C04A855B856C857D854F7155276627D0
:1042A0007727452B462B472B91F740E250E0B8018A
:1042B000CE01DDDE803269F4F8018081882359F077
:1042C000853E99F38E3289F3838583FDEECF80E2BC
:1042D00003C087FDDCCF80E0DF91CF911F910F916C
:1042E0000895FF920F931F93CF93DF931F92CDB743
:1042F000DEB78C01FC018581823018F480E090E00B
:1043000033C0F8014285538564857585A5E07695AF
:10431000679557954795AA95D1F7F42FFF70FF2E13
:1043200041E050E0BE016F5F7F4FC801A0DE019702
:1043300019F4298130E002C02FEF3FEF2F3F3F4FAC
:10434000E9F2F8014285538564857585415E5F4FCA
:104350006F4F7F4F4287538764877587F0E2FF9ED8
:10436000C00111248F589B4F0F90DF91CF911F9167
:104370000F91FF9008954F925F926F927F92AF924C
:10438000BF92CF92DF92EF92FF920F931F93CF9342
:10439000DF93EC016A017B012D81222309F457C0D0
:1043A0008B899C89AD89BE8984179507A607B707B5
:1043B00008F44DC04EC08A859B85AC85BD85EB8DCC
:1043C000FC8DE585F0E03996AC01BD014150510905
:1043D000610971090E2E04C076956795579547952A
:1043E0000A94D2F797018601015011092109310978
:1043F00004C03695279517950795EA95D2F70417C7
:10440000150726073707B0F58F89988DA98DBA8DC6
:104410008E839F83A887B987280139015E0186E0D2
:10442000A80EB11C411451046104710461F14E8164
:104430005F816885798595018B8D9C8D0E940F1811
:1044400091E0491A5108610871088111EBCF80E0B1
:104450001FC02230C1F0C114D104E104F10409F0FD
:10446000AACF1E821F82188619861A861B861C8672
:104470001D860DC0892B8A2B8B2B31F2041B150B4B
:10448000260B370BC9CFCA86DB86EC86FD8681E01A
:10449000DF91CF911F910F91FF90EF90DF90CF9020
:1044A000BF90AF907F906F905F904F9008950F9363
:1044B0001F93CF93DF93EC018D818823C1F18C8111
:1044C00087FF2FC061E0CE0115DD8C01009779F1E7
:1044D0008D81823048F44B895C896D897E89F80131
:1044E000448F558F668F778F4F89588D698D7A8D60
:1044F000F801538F428F758B648BE0917406F091B5
:104500007506309759F0B8016A5E7F4FC80148962A
:104510001995F801808D918D938B828B8C818F778B
:104520008C83DF91CF911F910F910C94781780E0CD
:10453000DF91CF911F910F910895CF93DF93EC01FD
:10454000B6DF882319F01D8281E001C080E0DF9191
:10455000CF9108954F925F926F927F92AF92BF92E8
:10456000CF92DF92EF92FF920F931F93CF93DF933F
:1045700000D01F92CDB7DEB75C016A017B01FC0160
:1045800085818130E9F4848181FF1AC0F501838936
:104590009489A589B68984179507A607B70780F07F
:1045A000892B8A2B8B2B09F476C0F5014284538426
:1045B00064847584B701A601C501DDDE811102C0E6
:1045C00080E06AC0F501838D948DC114D104E104AB
:1045D000F10471F44789508D618D728D0E94AD1A7E
:1045E000882371F3F501178A108E118E128E3AC04E
:1045F000F50146815781608571859E012F5F3F4F90
:104600000E940F188823E1F249815A816B817C81D5
:10461000F501838D948DFC012789203129F408EF61
:104620001FEF20E030E004C008EF1FEF2FEF3FE066
:104630004017510762077307A8F40E94AD1A882338
:1046400009F4BECFF50146815781608571850FEF72
:104650001FEF2FEF3FE0838D948D0E94FC1888237D
:1046600009F4AECFF501C38AD48AE58AF68A84813B
:1046700080688483C5011BDF882309F4A1CFB701BB
:10468000A6014C145D046E047F0410F4B301A20172
:10469000C50171DE01C081E00F900F900F900F9067
:1046A000DF91CF911F910F91FF90EF90DF90CF900E
:1046B000BF90AF907F906F905F904F900895FF9262
:1046C0000F931F93CF93DF93EC01F42E80E2689F4A
:1046D000F0011124EF58FB4F8385817129F0842F5D
:1046E000827411F080E052C06A8B80912402909114
:1046F0002502A0912602B09127028E879F87A88B62
:10470000B98B4489558960E070E0BA015527442788
:10471000028D138D20E030E0402B512B622B732B48
:104720004F8B588F698F7A8F8385887151F4048DF0
:10473000158D268D378D0B8B1C8B2D8B3E8B81E041
:104740000CC0803179F69E012D5E3F4F8B8D9C8D84
:104750000E949218882331F284E08D838F2D8F7010
:104760008C831E821F82188619861A861B861C86D9
:104770001D86F6FE0AC040E050E0BA01CE01DF918E
:10478000CF911F910F91FF90E5CE81E0DF91CF9106
:104790001F910F91FF900895AF92BF92CF92DF9239
:1047A000EF92FF920F931F93CF93DF93CDB7DEB7B6
:1047B0002B970FB6F894DEBF0FBECDBF7C016B0107
:1047C000CA01B22EF70125812111B4C0BE016F5F6D
:1047D0007F4FC6DB882309F4ADC0F601838D948D2D
:1047E000F701948F838FF601168217821086118647
:1047F0001286138614861586A12CF6010285138570
:104800002485358583899489A589B6890817190770
:104810002A073B07E0F545E036952795179507955C
:104820004A95D1F70F70C6015CDD009709F482C08C
:10483000FC012081222311F0253EB9F4A1100EC005
:10484000F701028B409124025091250260912602CB
:104850007091270246875787608B718BFC0180819E
:10486000AA24A3948111C9CF12C04BE050E0BC012F
:10487000CE0101960E94D62F892B09F0BECF8B2D39
:104880008073803309F456C04B2D602F50C08B2DA0
:104890008271823109F04EC0AA2039F061E0C7016F
:1048A00029DB8C01009771F445C0F60185818230C7
:1048B00009F440C0C601BFDA8823E1F1F701128A8A
:1048C00001E714E080E2F80111928A95E9F78BE0A4
:1048D000FE013196D80101900D928A95E1F7E091A1
:1048E0007406F0917506309739F0B801625F7F4F1A
:1048F000C8014096199509C081E298E2F801918BB0
:10490000808B80E098E097878687F801808991897D
:10491000938B828B918F808F86859785978B868BE3
:104920000E947817882331F04B2DF7016289C70167
:10493000C6DE01C080E02B960FB6F894DEBF0FBE36
:10494000CDBFDF91CF911F910F91FF90EF90DF903E
:10495000CF90BF90AF9008952F923F924F925F9269
:104960006F927F928F929F92AF92BF92CF92DF927F
:10497000EF92FF920F931F93CF93DF9300D01F927C
:104980001F92CDB7DEB78C017B013A01DC01159691
:104990008C9115978130C1F414968C9181FF14C0CD
:1049A00082FF1AC0F8014389548965897689828516
:1049B0009385A485B58584179507A607B70761F089
:1049C000C801D9DC811108C081E090E0F80193832F
:1049D000828380E090E043C163017FC0D8015B9691
:1049E0008D919C915C97FC01F481F150B501A4017B
:1049F00029E076956795579547952A95D1F7F42341
:104A0000FD8321E09222FF2309F473C080E092E04D
:104A10008819990956018C159D0508F45C01D80187
:104A20005B96ED91FC915C9716962D903D904D9084
:104A30005C901997B2E02B1A31084108510805849F
:104A400004C0220C331C441C551C0A94D2F78685E2
:104A50009785A089B189280E391E4A1E5B1EED81FB
:104A60002E0E311C411C511CA114F2E0BF0609F0AE
:104A700086C08091240290912502A0912602B091D7
:104A8000270282159305A405B50559F48FEF9FEF12
:104A9000DC018093240290932502A0932602B09318
:104AA00027029701B201A10180916F0490917004D7
:104AB0004CD9882309F488CF9EEFF91ACA18DB086D
:104AC000F80182859385A485B5858A0D9B1DA11D5E
:104AD000B11D82879387A487B587D8011A968D90D8
:104AE0009D90AD90BC901D97C114D10409F076CF74
:104AF00089C08114910409F089CF16964D915D917A
:104B00006D917C911997411551056105710559F415
:104B100057968D919D910D90BC91A02D0097A10568
:104B2000B10539F521C09E012F5F3F4F0E940F183C
:104B3000882309F44FCF89819A81AB81BC81F80128
:104B4000238D348DF9012789203129F448EF5FEF57
:104B500060E070E004C048EF5FEF6FEF7FE0841724
:104B60009507A607B70728F0C8013CD981114ECF99
:104B70002BCFF80186839783A087B18747CF811415
:104B8000910429F5D8011A964D915D916D917C9112
:104B90001D9753968D919D910D90BC91A02D481716
:104BA00059076A077B0798F00E947817882309F451
:104BB0000BCF20922402309225024092260250927E
:104BC000270280916E04816080936E0408C041E0EA
:104BD000C201B1010E94B117882309F4F5CEC401C6
:104BE0008F589B4FD7019C012A0D3B1DFC01E217FA
:104BF000F30719F04D914193FACFE81BF90BEE0E34
:104C0000FF1E5CCF53968D919D910D90BC91A02D70
:104C1000F801248188159905AA05BB0538F4838A13
:104C2000948AA58AB68A206824830CC08091740671
:104C300090917506892B31F06114710419F0206888
:104C4000F8012483D80114968C9183FD02C0C3011E
:104C500006C0C8012CDC882309F4B6CEF8CF0F902B
:104C60000F900F900F900F90DF91CF911F910F91A8
:104C7000FF90EF90DF90CF90BF90AF909F908F907C
:104C80007F906F905F904F903F902F900895CF93BB
:104C9000DF931F92CDB7DEB7698341E050E0BE01DC
:104CA0006F5F7F4F59DE0F90DF91CF910895089588
:104CB0001F920F920FB60F9211242F933F938F9351
:104CC0009F93AF93BF938091770690917806A091C0
:104CD0007906B0917A063091760623E0230F2D37BE
:104CE00020F40196A11DB11D05C026E8230F0296F0
:104CF000A11DB11D209376068093770690937806C8
:104D0000A0937906B0937A0680917B0690917C06F9
:104D1000A0917D06B0917E060196A11DB11D8093E4
:104D20007B0690937C06A0937D06B0937E06BF9190
:104D3000AF919F918F913F912F910F900FBE0F9048
:104D40001F9018952FB7F8946091770670917806A8
:104D50008091790690917A062FBF08953FB7F89415
:104D600080917B0690917C06A0917D06B0917E0695
:104D700026B5A89B05C02F3F19F00196A11DB11DB6
:104D80003FBF6627782F892F9A2F620F711D811DD3
:104D9000911D42E0660F771F881F991F4A95D1F732
:104DA0000895CF92DF92EF92FF92CF93DF936B0142
:104DB0007C01D4DFEB01C114D104E104F10479F0EA
:104DC00076DFCCDF6C1B7D0B683E7340A0F381E087
:104DD000C81AD108E108F108C851DC4FECCFDF91C7
:104DE000CF91FF90EF90DF90CF900895789484B5A5
:104DF000826084BD84B5816084BD85B5826085BDD7
:104E000085B5816085BDEEE6F0E0808181608083BC
:104E1000E1E8F0E01082808182608083808181609F
:104E20008083E0E8F0E0808181608083E1EBF0E066
:104E3000808184608083E0EBF0E08081816080830A
:104E4000E1E9F0E0808182608083808181608083FD
:104E5000E0E9F0E0808181608083E1EAF0E0808138
:104E600082608083808181608083E0EAF0E08081DD
:104E700081608083E1E2F1E08081826080838081D3
:104E800081608083E0E2F1E0808181608083EAE7F5
:104E9000F0E0808184608083808182608083808173
:104EA000816080838081806880831092C100089532
:104EB00090E0FC013197E231F10508F04BC0EE586B
:104EC000FF4F46C6809180008F7703C0809180009D
:104ED0008F7D80938000089580918000877FF9CF37
:104EE00084B58F7702C084B58F7D84BD089580918D
:104EF000B0008F7703C08091B0008F7D8093B000A9
:104F00000895809190008F7707C0809190008F7DE9
:104F100003C080919000877F8093900008958091D6
:104F2000A0008F7707C08091A0008F7D03C0809183
:104F3000A000877F8093A0000895809120018F7743
:104F400007C0809120018F7D03C080912001877F61
:104F5000809320010895CF93DF9390E0FC01E25A03
:104F6000FE4F2491FC01EC55FE4F8491882349F1BA
:104F700090E0880F991FFC01EC5FFD4FA591B49163
:104F800086519E4FFC01C591D4919FB7611108C015
:104F9000F8948C91209582238C93888182230AC077
:104FA000623051F4F8948C91322F309583238C9396
:104FB0008881822B888304C0F8948C91822B8C93F7
:104FC0009FBFDF91CF9108950F931F93CF93DF93EE
:104FD0001F92CDB7DEB7282F30E0F901E85EFE4F13
:104FE0008491F901E25AFE4F1491F901EC55FE4FFC
:104FF00004910023C1F0882319F0698359DF698186
:10500000E02FF0E0EE0FFF1FE651FE4FA591B491A7
:105010009FB7F8948C91611103C01095812301C052
:10502000812B8C939FBF0F90DF91CF911F910F9198
:105030000895FC018081918146C6CF93DF93EC01F6
:1050400088819981009709F03ED6198218821D82C5
:105050001C821B821A82DF91CF9108950F931F93B8
:10506000CF93DF93EC018B016F5F7F4F8881998134
:10507000B9D6009731F0998388831B830A8381E036
:1050800001C080E0DF91CF911F910F910895CF93E0
:10509000DF93EC0188819981892B29F08A819B819A
:1050A0008617970758F4CE01D9DF882341F08C8109
:1050B0009D81892B19F4E881F981108281E0DF91CB
:1050C000CF910895EF92FF920F931F93CF93DF93A9
:1050D000EC017B018A01BA01DADF811103C0CE0144
:1050E000ACDF06C01D830C83B7018881998188D706
:1050F000CE01DF91CF911F910F91FF90EF90089516
:10510000FC011182108213821282158214826115B1
:10511000710551F0FB0101900020E9F7AF0141500A
:105120005109461B570BCECF0895CF93DF93EC0167
:10513000FB018617970751F0608171816115710538
:1051400021F044815581BEDF01C077DFCE01DF91C0
:10515000CF910895FC011182108213821282158270
:105160001482E3CFCF93DF93EC016115710559F001
:10517000FB0101900020E9F7AF0141505109461BA6
:10518000570BA0DF01C059DFCE01DF91CF91089509
:10519000EF92FF920F931F93CF93DF93EC017B016C
:1051A0000C811D816115710511F480E014C0411559
:1051B000510581F0040F151FB80169DF8823A9F399
:1051C000288139818C819D81B701820F931F18D767
:1051D0001D830C8381E0DF91CF911F910F91FF9090
:1051E000EF900895CF93DF931F921F92CDB7DEB754
:1051F00069831A8241E050E0BE016F5F7F4FC8DFD4
:105200000F900F90DF91CF910895CF93DF93EC0132
:10521000FB014481558160817181BADF811102C037
:10522000CE010BDFCE01DF91CF910895FC012481E7
:105230003581232B31F421E06115710599F0FB01D3
:1052400008C0FC01808191816115710531F421E074
:10525000FC018081882331F004C0C9D621E0892B6C
:1052600009F020E0822F08951F920F920FB60F923F
:1052700011240BB60F922F938F939F93EF93FF936D
:10528000E0918F06F09190068081E0919506F09173
:10529000960682FD12C09081809198068F5F8F7371
:1052A00020919906821751F0E0919806F0E0E158BC
:1052B000F94F958F8093980601C08081FF91EF91FF
:1052C0009F918F912F910F900BBE0F900FBE0F905B
:1052D0001F9018951F920F920FB60F9211240BB6C4
:1052E0000F922F933F934F935F936F937F938F937F
:1052F0009F93AF93BF93EF93FF938FE796E0C7D051
:10530000FF91EF91BF91AF919F918F917F916F919D
:105310005F914F913F912F910F900BBE0F900FBE59
:105320000F901F9018958FE796E049D021E0892BC8
:1053300009F420E0822F08951092820610928106CF
:1053400088EE93E0A0E0B0E080938306909384061B
:10535000A0938506B09386068EE893E0909380062E
:1053600080937F0685EC90E090938C0680938B066B
:1053700084EC90E090938E0680938D0680EC90E014
:105380009093900680938F0681EC90E09093920624
:105390008093910682EC90E090939406809393061C
:1053A00086EC90E09093960680939506109298066E
:1053B0001092990610929A0610929B060895FC018D
:1053C000818D228D90E0805C9F4F821B91098F73AD
:1053D00099270895FC01918D828D981731F0828D67
:1053E000E80FF11D858D90E008958FEF9FEF0895F0
:1053F000FC01918D828D981761F0828DDF01A80FDD
:10540000B11D5D968C91928D9F5F9F73928F90E0FE
:1054100008958FEF9FEF089583E999E2892B39F082
:1054200080E090E0892B19F07EDF811124C08AE3AF
:105430009DE2892B39F080E090E0892B19F01AD396
:1054400081111CC080E090E0892B41F080E090E069
:10545000892B21F00E940000811113C080E090E0B0
:10546000892BA1F080E090E0892B81F00E94000060
:1054700081110AC008950E940000D9CF0E94000047
:10548000E1CF0E940000EACF0C9400000895FC01D7
:10549000848DDF01A80FB11DA35ABF4F2C91848DBD
:1054A00090E001968F739927848FA689B7892C93F2
:1054B000A089B1898C9180648C93938D848D98138D
:1054C00006C00288F389E02D80818F7D8083089556
:1054D000CF93DF93EC01888D8823C1F0EA89FB89A3
:1054E000808185FD05C0A889B9898C9186FD0EC093
:1054F0000FB607FCF5CF808185FFF2CFA889B98967
:105500008C9185FFEDCFCE01C2DFE8CFDF91CF9147
:105510000895CF92DF92FF920F931F93CF93DF9363
:105520001F92CDB7DEB76C0181E0D60158968C93FF
:1055300058975B969C915B975C968C915C979813BF
:1055400007C05096ED91FC915197808185FD2DC04B
:10555000F601038D10E00F5F1F4F0F731127F02E20
:10556000F601848DF81210C00FB607FCF9CFD601F2
:105570005096ED91FC915197808185FFF1CFC60146
:10558000698385DF6981ECCF838DE80FF11DE35AD4
:10559000FF4F6083D6015B960C935B975296ED911B
:1055A000FC915397808180620CC0D6015696ED9194
:1055B000FC91579760835096ED91FC9151978081B3
:1055C0008064808381E090E00F90DF91CF911F9104
:1055D0000F91FF90DF90CF900895BF92CF92DF920E
:1055E000EF92FF92CF93DF93EC016A017B01B22E21
:1055F000E889F98982E08083411581EE58076105C9
:10560000710599F060E079E08DE390E0A7019601E3
:105610007DD2215031094109510956954795379559
:105620002795211580E1380790F0E889F9891082E3
:1056300060E874E88EE190E0A701960167D22150FE
:105640003109410951095695479537952795EC85BC
:10565000FD853083EE85FF852083188EEC89FD89DA
:10566000B082EA89FB89808180618083EA89FB8935
:10567000808188608083EA89FB898081806880835B
:10568000EA89FB8980818F7D8083DF91CF91FF90B4
:10569000EF90DF90CF90BF900895AF92BF92CF92DE
:1056A000DF92EF92FF920F931F93CF93DF936C01E2
:1056B0007B01C0E0D0E000E010E0F601EC0FFD1F40
:1056C0004AE050E06281C70153D15C016EE2C7013C
:1056D000A8D08A0D9B1D080F191F2196C330D10534
:1056E00061F74AE050E0F6016581C70141D1800FC2
:1056F000911FDF91CF911F910F91FF90EF90DF905D
:10570000CF90BF90AF9008952EE933E0FC01318334
:105710002083128213821482158208950F93FC0154
:105720008EE993E09183808362834383248305839E
:105730000F9108952EE933E0FC0131832083FB01B2
:105740004081518162817381FC0142835383648370
:1057500075830895FB014081518162817381FC0151
:10576000428353836483758308958EE993E0909315
:105770001D0780931C0710921E0710921F0710929E
:105780002007109221070895CF92DF92EF92FF92A7
:105790000F931F93CF93DF936C017A01EB01E60E19
:1057A000F71E00E010E0CE15DF0561F06991D6012B
:1057B000ED91FC910190F081E02DC6011995080F43
:1057C000191FF1CFC801DF91CF911F910F91FF9069
:1057D000EF90DF90CF9008956115710581F0DB01A6
:1057E0000D900020E9F7AD0141505109461B570BC0
:1057F000DC01ED91FC910280F381E02D199480E0B1
:1058000090E00895DC01ED91FC91DB0114964D913F
:105810005C9115976D917C910280F381E02D199434
:10582000DBCFDC01ED91FC910190F081E02D19942A
:10583000DB01ED91FC9111970190F081E02DBC010D
:10584000CD01199460EA73E0C7CF0F931F93CF93F4
:10585000DF93EC01D7DF8C01CE01F4DF800F911FC5
:10586000DF91CF911F910F9108950F931F93CF93C5
:10587000DF93EC01B1DF8C01CE01E4DF800F911FDB
:10588000DF91CF911F910F9108950F931F93CF93A5
:10589000DF93EC01CDDF8C01CE01D4DF800F911FAF
:1058A000DF91CF911F910F9108958F929F92AF92A8
:1058B000BF92CF92DF92EF92FF920F931F93CF93FD
:1058C000DF93CDB7DEB7A1970FB6F894DEBF0FBE5A
:1058D000CDBF7C01C42EE52FCB01D22E19A221E031
:1058E0002D1510F02AE0D22E8E010F5D1F4F8D2C4A
:1058F000912CA12CB12C6C2D7E2FA501940106D1E9
:105900008C2DD29E80191124015011098A3014F473
:10591000805D01C0895CF801808321153105410556
:10592000510521F0C22EE32FCA01E5CFB801C7010E
:1059300053DFA1960FB6F894DEBF0FBECDBFDF9147
:10594000CF911F910F91FF90EF90DF90CF90BF907C
:10595000AF909F908F9008952115310541F4DC019F
:10596000ED91FC910190F081E02D642F19949DCF71
:105970009A01462F50E060E070E0EECF0F931F9346
:10598000CF93DF93EC01E8DF8C01CE015BDF800F6A
:10599000911FDF91CF911F910F910895089526DAFD
:1059A000FDDF0E940402CCE0DAE20E94DE032097D1
:1059B000E1F332DDFACF1F920F920FB60F9211244E
:1059C0000BB60F922F938F939F93EF93FF93E091DA
:1059D0003207F09133078081E0913807F091390761
:1059E00082FD12C0908180913B078F5F8F73209161
:1059F0003C07821751F0E0913B07F0E0EE5DF84F75
:105A0000958F80933B0701C08081FF91EF919F911B
:105A10008F912F910F900BBE0F900FBE0F901F9084
:105A200018951F920F920FB60F9211240BB60F927A
:105A30002F933F934F935F936F937F938F939F9396
:105A4000AF93BF93EF93FF9382E297E020DDFF9146
:105A5000EF91BF91AF919F918F917F916F915F91E6
:105A60004F913F912F910F900BBE0F900FBE0F9053
:105A70001F90189582E297E0A2DC21E0892B09F4BF
:105A800020E0822F0895109225071092240788EEB7
:105A900093E0A0E0B0E08093260790932707A093BF
:105AA0002807B09329078EE893E09093230780930B
:105AB00022078DEC90E090932F0780932E078CECBB
:105AC00090E0909331078093300788EC90E09093BA
:105AD00033078093320789EC90E0909335078093E9
