:100000000C9465000C948D000C948D000C948D0064
:100010000C948D000C948D000C948D000C948D002C
:100020000C948D000C948D000C948D000C948D001C
:100030000C948D000C948D000C948D000C948D000C
:100040000C94BE110C948D000C940D140C943F1460
:100050000C948D000C948D000C948D000C948D00EC
:100060000C948D000C948D0000000008000201002B
:100070000003040700000000000000000102040863
:100080001020408001020408102001020408102002
:10009000040404040404040402020202020203032E
:1000A0000303030300000000250028002B000000CC
:1000B0000000240027002A008F00E70164063A08A8
:1000C0006D097B09110B6F14621611241FBECFEF4F
:1000D000D8E0DEBFCDBF11E0A0E0B1E0E6E8F3E399
:1000E00002C005900D92AE39B107D9F722E0AEE912
:1000F000B1E001C01D92A43AB207E1F710E0CAECEA
:10010000D0E004C02297FE010E948517C83BD107AA
:10011000C9F70E9452170C94C1190C9400000F9358
:1001200000E020E040E060E084EA91E00E943B16BD
:1001300060910A0170910B018EE991E00F910C948E
:10014000E0090F931F93CF93DF93CDB7DEB762978C
:100150000FB6F894DEBF0FBECDBF40910E01509197
:100160000F01662757FD6095762F20910C018DEFCA
:1001700091E00E94951560E171E0CE0101960E9428
:10018000471664E171E0CE0107960E94471668E1C8
:1001900071E0CE010D960E9447168E010F5F1F4F32
:1001A0009E01295F3F4FAE01435F5F4F6CE171E0FD
:1001B00080EC91E00E94D0088EE991E00E949C09B9
:1001C00060EC71E0C8010E944509B8018DEF91E033
:1001D0000E94D21662960FB6F894DEBF0FBECDBF56
:1001E000DF91CF911F910F9108951F93CF93DF93CC
:1001F000CDB7DEB763970FB6F894DEBF0FBECDBFA5
:100200006EE971E0CE0101960E94A40ACE0101962A
:100210000E94B604882309F44CC06EE871E0CE0158
:100220000E960E94A013CE0101960E9440068823DC
:10023000E1F1CE0101960E94E304892B71F1CE0118
:1002400001960E94EC04182F682FCE010E960E9492
:10025000FA131A3071F7BE01625F7F4F8DEF91E0A4
:100260000E94AF166EE871E0CE010E960E94B613A2
:100270008DEF91E00E940E15DCCF8DEF91E00E9492
:10028000CB14182F682FCE0101960E94BD161A308C
:1002900021F4CE0101960E942D058DEF91E00E9480
:1002A000B214181619064CF3BECFCE010E960E945A
:1002B000321363960FB6F894DEBF0FBECDBFDF9149
:1002C000CF911F910895CF93CFB7F8948091AD014E
:1002D000811127C0EAE9F0E08491E6E8F0E094912A
:1002E000E82FF0E0EE0FFF1FE255FF4FA591B4910C
:1002F0008C91892321F461E08AE00E94FC1261E084
:100300008AE00E94C3128CB580618CBD8CB580647C
:100310008CBD61E08DE00E94C31261E08BE00E9421
:10032000C3128091AD018F5F8093AD01CFBFCF919C
:100330000895FB014281538164817581FC014283F0
:10034000538364837583178216820895CF93FB01CC
:1003500081918111FDCFFB0180E090E020E030E051
:10036000CAE06191662309F12430310564F56E32EB
:1003700071F48F3F910509F034F5DA01A20FB31F34
:1003800012968C932F5F3F4F80E090E0EACFDC0124
:10039000CA9FC001CB9F900D1124772767FD7095F0
:1003A00060537109860F971FDCCF8F3F910509F0CD
:1003B00054F4243031053CF4FA01E20FF31F828338
:1003C00081E090E002C080E090E0CF9108950F932B
:1003D00000E020E040E060E08EEA91E00E943B1601
:1003E0000F910895AF92BF92CF92DF92EF92FF925A
:1003F0000F931F93CF93DF9300D01F92CDB7DEB73B
:100400006C017B010E940812F601778366838601E6
:10041000085F1F4FB6016A5F7F4F42E050E0C8019E
:100420000E94D70681E090E09A83898342E050E001
:10043000BE016F5F7F4FC8010E94D70680E091E048
:100440009A83898342E050E0BE016F5F7F4FC8010D
:100450000E94D7061A82198242E050E0BE016F5F07
:100460007F4FC8010E94D70642E050E0BE016F5F97
:100470007F4FC8010E94D70642E050E0BE016F5F87
:100480007F4FC8010E94D7066701F601808188234B
:1004900011F1F7016F018191811115C05601AE185C
:1004A000BF081A141B0494F4AB8241E050E0BE0173
:1004B0006D5F7F4FC8010E94D706A501B701C80133
:1004C0000E94D70603C08E3229F7E8CF7601FFEFEE
:1004D000EF1AFF0ADACF1B8241E050E0BE016D5FE8
:1004E0007F4FC8010E94D706E12CFF24F394FA82C3
:1004F000E98242E050E0BE016F5F7F4FC8010E9479
:10050000D706FA82E98242E050E0BE016F5F7F4F7A
:10051000C8010E94D70681E090E00F900F900F90E5
:10052000DF91CF911F910F91FF90EF90DF90CF90CF
:10053000BF90AF9008954F925F926F927F928F928B
:100540009F92AF92BF92CF92DF92EF92FF920F9362
:100550001F93CF93DF93CDB7DEB763970FB6F894B1
:10056000DEBF0FBECDBF7C015B016A010E94081295
:100570002B013C018701085F1F4F4501A12CB12CC5
:10058000C8010E9477071816190694F00E940812F5
:10059000641975098609970986169706A806B9068B
:1005A000D0F062E370E080E090E00E943712E8CF84
:1005B000F7014281538164817581818D928DA38D74
:1005C000B48D481759076A077B0741F4858D968DCE
:1005D000C59721F406C08FEF9FEFF9C08EEF9FEF14
:1005E000F6C0C8010E948A060C970CF4EEC04CE0DD
:1005F00050E0BE016F5F7F4FC8010E9414078B81DE
:100600009C819827892798279A8B898BF7014681A7
:10061000578129813A814217530711F497FD06C08B
:10062000C8010E94A4068CEF9FEFD1C08F7092701A
:10063000892B31F0C8010E94A4068BEF9FEFC7C041
:10064000AF80B884BA24AB24BA24A114B10419F041
:10065000E12CF12C23C0C8010E94A4068AEF9FEF71
:10066000B6C041E050E0BE01635F7F4FC8010E9409
:1006700014078D8581111BC08D858111F2CFC801B2
:100680000E94EB06C8010E94EB06C8010E94EB061F
:10069000C8010E94EB06FFEFEF1AFF0A8D819E81D1
:1006A000982789279827E816F906D8F20AC08D8579
:1006B0009FEF980F9D878823F9F2C8010E94EB06EF
:1006C000F6CFE12CF12C41E050E0BE016D5E7F4F92
:1006D000C8010E9414078B89982F907C61F48823AD
:1006E00071F08B899FEF980F9B8B882341F0C80195
:1006F0000E94EB06F6CFC8010E94EB061B8A8B898D
:100700008111E1CF42E050E0BE01615F7F4FC8013F
:100710000E94140742E050E0BE01635F7F4FC801B2
:100720000E941407C8010E94EB06C8010E94EB0654
:10073000C8010E94EB06C8010E94EB0642E050E0AF
:10074000BE016F5E7F4FC8010E9414078F85988994
:100750008115914029F48D859E858115914019F070
:10076000812C912C16C089899A898115944031F089
:10077000C8010E94A40687EF9FEF29C0B6016E5FF3
:100780007F4F44E050E0C8010E94140781E090E0F0
:100790001EC089899A8998278927982788169906DB
:1007A00038F4C8010E94EB062FEF821A920AF1CFAB
:1007B0008FEFE81AF80AEA14FB0409F084CFC801A5
:1007C0000E94A40686EF9FEF02C08DEF9FEF639615
:1007D0000FB6F894DEBF0FBECDBFDF91CF911F9152
:1007E0000F91FF90EF90DF90CF90BF90AF909F90D0
:1007F0008F907F906F905F904F9008958F929F920F
:10080000AF92BF92CF92DF92EF92FF920F931F931E
:10081000CF93DF9300D000D000D0CDB7DEB78C01EE
:100820005B016A010E94A6014C01009709F05DC0BE
:10083000F80142815381648175818091B00190916A
:10084000B101A091B201B091B301481759076A07ED
:100850007B0709F44EC00E9408127801F8E0EF0E01
:10086000F11C6F7077277C5FC7010E944A078130B7
:1008700009F043C08AE891E09A838983F801828174
:100880009381A481B5818B839C83AD83BE8345E333
:1008900050E0BE016F5F7F4FC7010E94CB06892BDE
:1008A00019F4812C912C1DC0B501C8010E94F201E0
:1008B000892BB9F3C7010E94D306892B91F333E04A
:1008C000A32EB12CA60168E873E1C8010E949B0227
:1008D0004C01F1E0AF1AB10821F08F3F2FEF9207E2
:1008E00089F3C7010E94B60608C088248394912C1E
:1008F00004C09EEF892E99249A94C40126960FB6BF
:10090000F894DEBF0FBECDBFDF91CF911F910F9145
:10091000FF90EF90DF90CF90BF90AF909F908F901F
:10092000089581E086270895862F0895DC01ED91D2
:10093000FC91048CF58DE02D099591E089270895AF
:10094000CF93DF931F92CDB7DEB76983DC01ED91C2
:10095000FC910280F381E02D41E050E0BE016F5F29
:100960007F4F09950F90DF91CF91089521E0FC0111
:100970008485843009F420E0822F0895FC01948559
:10098000FB018485981303C081E0943009F480E072
:1009900008950F931F93CF93DF93EC018A018C8509
:1009A000843021F00E948C0F892B39F481E090E093
:1009B0009B838A8380E090E001C0C801DF91CF91E2
:1009C0001F910F910895FC018485843011F00C94DF
:1009D000831080E090E00895CF93DF931F92CDB70E
:1009E000DEB741E050E0BE016F5F7F4FFC018485C0
:1009F0000E942310181619061CF4898190E002C089
:100A00008FEF9FEF0F90DF91CF910895FC018485C8
:100A10000C9423100F931F93CF93DF931F92CDB7A6
:100A2000DEB78C01DC01ED91FC910480F581E02DB5
:100A30000995892B51F0BE016F5F7F4FF8018485C6
:100A40000E94AE10898190E002C08FEF9FEF0F905F
:100A5000DF91CF911F910F910895FC0184850C9433
:100A6000DD10CF92DF92EF92FF920F931F93CF93FF
:100A7000DF93CDB7DEB7AF970FB6F894DEBF0FBEEA
:100A8000CDBF7C018B016A01CE0101960E94311617
:100A9000CE0109960E94C707CE018A960E943116A0
:100AA00060EC71E0CE0184960E945D09BE016C5D30
:100AB0007F4FCE0101960E949901AE01465D5F4FC6
:100AC000B801CE0101960E94FE0381309105C1F468
:100AD000D701ED91FC910484F585E02D8AE891E041
:100AE0009DA38CA30CA51DA52EA53FA50EA31FA3FA
:100AF00028A739A7A601BE016C5D7F4FC7010995E4
:100B0000AF960FB6F894DEBF0FBECDBFDF91CF9189
:100B10001F910F91FF90EF90DF90CF900895FC010F
:100B2000262F1382128248EE53E060E070E0448387
:100B300055836683778388E291E09183808324875D
:100B40000895FC018485843011F00C94360E80E009
:100B50000895DF92EF92FF920F931F93CF93DF934D
:100B6000EC017B018A018C85843009F045C0D12CD1
:100B70008D2D0E94360E811102C0DC8607C08B7F4E
:100B80008831D9F3D39484E0D812F2CF8C858430A5
:100B900099F120912201309123012F5F3F4F11F4F1
:100BA00020E030EC30932301209322014091220178
:100BB0005091230120E061E00E94880EB7016E5F32
:100BC0007F4FA8018C850E940E0F811103C084E025
:100BD0008C8712C0CE010E94A105873151F061E0DF
:100BE00070E080E090E00E943712CE010E94A105E3
:100BF000ECCF81E090E002C080E090E0DF91CF9107
:100C00001F910F91FF90EF90DF900895CF92DF92A8
:100C1000EF92FF92CF93DF93EC018C85843049F102
:100C20000E94660F0E9408126B017C01CE010E9497
:100C3000A1058823A1F061E070E080E090E00E94CF
:100C400037120E9408126C197D098E099F09683EAF
:100C500073408105910550F38C850E945E0EEC85F2
:100C6000F0E0EE0FFF1FE853FE4F1182108284E088
:100C70008C87DF91CF91FF90EF90DF90CF90089518
:100C8000CF93DF93EC018C858430D1F0CE010E94AC
:100C9000A1058431A9F0882399F0883189F08C313D
:100CA00069F4E881F9810480F581E02DCE01099590
:100CB00021E0892B09F420E0822F03C081E001C0EC
:100CC00080E0DF91CF9108950F9300E020E040E0B5
:100CD00060E084EB91E00E943B160F910895DC01E7
:100CE000ED91FC91008CF18DE02D09942AE831E022
:100CF000FC0131832083FB01418952896389748916
:100D0000FC0142835383648375830895FC018589C4
:100D100096890895FC01818D928D0895CF93DF937C
:100D20001F92CDB7DEB76983DC01ED91FC910280A3
:100D3000F381E02D41E050E0BE016F5F7F4F0995E8
:100D40000F90DF91CF910895CF93DF93EC01898DC0
:100D50009A8D892B41F0E881F9810680F781E02D99
:100D6000CE010995F4CFDF91CF910895CF93DF9312
:100D7000EC018C85843061F00E945E0EEC85F0E021
:100D8000EE0FFF1FE853FE4F1182108284E08C8724
:100D9000DF91CF910895FC01108E178A6E5F7F4F0F
:100DA00084850C942511FC0184850C946B11CF93E0
:100DB000DF93EC019A018F89988DAB01BC018C8582
:100DC0000E94DE102F89388D280F391F388F2F8B06
:100DD000DF91CF9108950F931F93CF93DF931F92CD
:100DE000CDB7DEB78C01FC01818D928D892B59F036
:100DF00041E050E0BE016F5F7F4F84850E94231069
:100E0000181619061CF08FEF9FEF08C0F801818DAE
:100E1000928D0197928F818F898190E00F90DF9161
:100E2000CF911F910F910895CF93DF93EC01898D9E
:100E30009A8D009719F48FEF9FEF10C0481759074C
:100E400008F0AC018C850E942310181619069CF737
:100E5000298D3A8D281B390B3A8F298FDF91CF913D
:100E60000895CF93DF931F92CDB7DEB7FC01218D9C
:100E7000328D232B49F0BE016F5F7F4F84850E9426
:100E8000AE10898190E002C08FEF9FEF0F90DF914D
:100E9000CF910895FF920F931F93CF93DF93EC01AF
:100EA0008B018C858430E1F4F12C8F2D0E94360E5D
:100EB000811102C0FC8606C08831E1F3F39484E01E
:100EC000F812F3CF8C85843059F01E870D871A8E67
:100ED000198E20E0A80162E00E94880E81E001C026
:100EE00080E0DF91CF911F910F91FF9008950F93B4
:100EF0001F93CF93DF93CDB7DEB728970FB6F89443
:100F0000DEBF0FBECDBF8C01DC01ED91FC910284F0
:100F1000F385E02D0995F80184850E948310181649
:100F2000190644F548E050E0BE016F5F7F4FD801DD
:100F30001C968C910E94231018161906ECF4BE0121
:100F40006F5F7F4FC8010F960E9457168D8190E00A
:100F5000982F88272E81820F911DF801968B858B03
:100F60008F8190E0982F88272885820F911D928F7E
:100F7000818F02C080E090E028960FB6F894DEBF23
:100F80000FBECDBFDF91CF911F910F910895FC014E
:100F90001382128248EE53E060E070E04483558390
:100FA000668377838CE491E09183808384E08487F7
:100FB000CF010F960C943116CF92DF92EF92FF92F1
:100FC0000F931F93CF93DF93CDB7DEB7AF970FB6D5
:100FD000F894DEBF0FBECDBF7C018B016A01CE014C
:100FE00001960E943116CE0109960E94C707CE01D4
:100FF0008A960E94311660EC71E0CE0184960E94C0
:101000005D09BE016C5D7F4FCE0101960E94990182
:10101000AE01465D5F4FB801CE0101960E94FE030E
:1010200081309105C1F4D701ED91FC910088F189DF
:10103000E02D8AE891E09DA38CA30CA51DA52EA50B
:101040003FA50EA31FA328A739A7A601BE016C5D6B
:101050007F4FC7010995AF960FB6F894DEBF0FBE5C
:10106000CDBFDF91CF911F910F91FF90EF90DF9057
:10107000CF9008950F9300E020E040E060E08AEB1D
:1010800091E00E943B160F9108952091AC0122231C
:1010900099F03FB7F8942091AC01213059F42DB369
:1010A0002093AA014DB32091AB01209524232DBBA1
:1010B0003FBF02C03093AA018CBD9DBD08958091B1
:1010C000AC01882361F09FB7F8942091AC01809126
:1010D000AA01213019F48DBB9FBF08958FBF0895D9
:1010E00044E050E0BC0181E090E00C94BD0B44E092
:1010F00050E0BC0185E090E00C94BD0B44E050E072
:10110000BC018FE090E00C94BD0B8F929F92AF9248
:10111000BF92CF92DF92EF92FF920F931F93CF93E4
:10112000DF9300D0CDB7DEB74C016A01590182EEE2
:1011300091E069837A830E94490B80E590E00E94E8
:10114000450846E050E069817A8189E090E00E949C
:10115000BD0BC60102960E947E08C80102960E943D
:101160007008C70102960E9477080E945F08F50187
:101170004281538164817581F40142835383648386
:1011800075830F900F90DF91CF911F910F91FF907A
:10119000EF90DF90CF90BF90AF909F908F90089589
:1011A0006F927F928F929F92AF92BF92CF92DF9277
:1011B000EF92FF920F931F93CF93DF93CDB7DEB7DC
:1011C0006E970FB6F894DEBF0FBECDBF6C015B010A
:1011D0007A014901380100E02FEF4FEF6FEFCE01A8
:1011E00049960E943B162AE831E03A8329838B8D89
:1011F0009C8DAD8DBE8D8B839C83AD83BE833887E4
:101200002F83F30182819381A481B58189879A8795
:10121000AB87BC873E872D87F40182819381A481AF
:10122000B5818F87988BA98BBA8B3C8B2B8BF70161
:1012300042815381648175814D8B5E8B6F8B788F7A
:10124000CE0101967C018E01095F1F4F9E01235F35
:101250003F4FAE014D5E5F4FB501C6010E9485084C
:101260006E960FB6F894DEBF0FBECDBFDF91CF9163
:101270001F910F91FF90EF90DF90CF90BF90AF90B4
:101280009F908F907F906F900895CF93DF93EC01A4
:101290000E94311680E590E00E944508BE016E5F15
:1012A0007F4F44E050E08FE090E00E94F80C0E94F5
:1012B0005F08CE01DF91CF9108952AE831E0FC016B
:1012C00031832083FB014281538164817581FC015C
:1012D000428353836483758308950F9300E020E075
:1012E00040E060E080ED91E00E943B1680EC91E0F0
:1012F0000F910C9431160F9300E020E040E060E085
:1013000086ED91E00E943B160F910895CF93DF93F5
:101310001F92CDB7DEB76983DC01ED91FC910280AD
:10132000F381E02D41E050E0BE016F5F7F4F0995F2
:101330000F90DF91CF910895EF92FF920F931F933B
:10134000CF93DF93CDB7DEB72D970FB6F894DEBFFE
:101350000FBECDBF7C0100E010E0602FCE010196F2
:101360000E948F05CE0101960E94A105811116C031
:10137000F7014481558120E061E0802F0E94880EB2
:10138000802F0E94DC0EF70184819581F801EE0F19
:10139000FF1FE853FE4F9183808305C00F5F1F4FEF
:1013A00004301105D1F62D960FB6F894DEBF0FBEAE
:1013B000CDBFDF91CF911F910F91FF90EF900895D6
:1013C000FC011382128280E791E091838083758310
:1013D00064830895BF92CF92DF92EF92FF920F93B2
:1013E0001F93CF93DF93CDB7DEB72D970FB6F89449
:1013F000DEBF0FBECDBF8C0148ECC42E41E0D42E21
:10140000B12CE12CF12C6B2DCE0101960E948F05A1
:10141000D6012D913D916D01F801848195812817A8
:101420003907B1F4CE0101960E94A105843169F01B
:10143000CE0101960E94A1058C3151F4CE01019696
:101440000E94E304892B99F003C0EE24E394F12C6D
:10145000B394F4E0BF12D7CFEF2871F4D801ED9127
:10146000FC910480F581E02DC801099505C0CE01ED
:1014700001960E940606ECCF2D960FB6F894DEBFBB
:101480000FBECDBFDF91CF911F910F91FF90EF90D5
:10149000DF90CF90BF9008957F928F929F92AF92EE
:1014A000BF92CF92DF92EF92FF920F931F93CF9351
:1014B000DF93CDB7DEB72D970FB6F894DEBF0FBE22
:1014C000CDBF6C015B014A010E94EA0958ECE52E90
:1014D00051E0F52E712C00E010E0672DCE01019651
:1014E0000E948F05F701219131917F01F6018481DE
:1014F00095812817390731F4CE0101960E94A10584
:101500008731C9F07394F4E07F12E7CFC8012D96BC
:101510000FB6F894DEBF0FBECDBFDF91CF911F9104
:101520000F91FF90EF90DF90CF90BF90AF909F9082
:101530008F907F900895A401B501CE0101960E947D
:10154000C904080F191FDECFBF92CF92DF92EF922E
:10155000FF920F931F93CF93DF93CDB7DEB72D97F5
:101560000FB6F894DEBF0FBECDBF8C016B01CB016F
:101570000E94EA0968ECE62E61E0F62EB12C6B2D94
:10158000CE0101960E948F05F701219131917F01D3
:10159000F601848195812817390751F5CE0101960E
:1015A0000E94A105873111F08C3111F5CE01019611
:1015B0000E94E304892BE1F08B819C81F8019383E5
:1015C00082838D819E81AF81B88584839583A68334
:1015D000B78349855A856B857C85408751876287AB
:1015E000738788E291E0918380838D85848708C02A
:1015F000B394F4E0BF12C3CF64E0C8010E948F052A
:10160000C8012D960FB6F894DEBF0FBECDBFDF9197
:10161000CF911F910F91FF90EF90DF90CF90BF90EF
:1016200008950F9300E020E040E060E08CED91E051
:101630000E943B160F9108958EBD00000DB407FE69
:10164000FDCF8EB508952A9808952A9A08951F937C
:10165000CF93DF9300D0CDB7DEB7182F6A8399837D
:101660000E94230B80EF0E941C0B9981892F0E94FE
:101670001C0B812F0E941C0B6A81862F0E941C0B61
:101680000E94250B81E00F900F90DF91CF911F9169
:101690000895CF93DF93EC016CE271E080E090E07D
:1016A0000E9437120E946301229A8091AC01882324
:1016B00099F09FB7F8948091AC01813059F48DB3C3
:1016C0008093AA012DB38091AB01809582238DBBBD
:1016D0009FBF02C09093AA0180E58CBD1DBC60E84D
:1016E00080E090E00E94270B65E58BE190E00E948E
:1016F000270B65E58AE190E00E94270B8091AC0101
:10170000882361F09FB7F8942091AC018091AA01E1
:10171000213019F48DBB9FBF01C08FBF80E090E4E2
:101720009983888380E090E69987888780E098E4B1
:101730009B838A8380E098E69B878A8780E090E598
:101740009D838C8380E090E79D878C8780E098E57F
:101750009F838E8380E098E79F878E87DF91CF916C
:101760000895FB01282F30E02C5F3F4F922F8827F0
:10177000642F8E0F9F1F0C94270BCF92DF92EF9256
:10178000FF920F931F93CF93DF93EC017A018B01AC
:101790006C01C40ED51ECC15DD05A1F00E94230BF3
:1017A00080EF0E941C0B8D2F0E941C0B8C2F0E941F
:1017B0001C0B2196F80181918F010E941C0B0E9445
:1017C000250BE9CFC701DF91CF911F910F91FF90BA
:1017D000EF90DF90CF9008951F93CF93DF931F92E8
:1017E000CDB7DEB7182F99830E94230B8FE00E949C
:1017F0001C0B9981892F0E941C0B812F0E941C0BAE
:1018000080E00E941C0B89830E94250B89810F9028
:10181000DF91CF911F910895282F30E02C5F3F4F2B
:10182000922F8827860F971F0C94EC0B1F93CF9352
:10183000DF93182F60E270E00E940C0CC82FD0E0FC
:1018400061E270E0812F0E940C0CDC2FCC279E01FE
:10185000282BC901DF91CF911F910895FF920F931B
:101860001F93CF93DF93F62EC0E0D0E08F2D0E9420
:10187000160C8C01009721F08F2D0E94160CEC01A4
:10188000C017D10799F7CE01DF91CF911F910F912A
:10189000FF9008951F93CF93DF93182F66E270E0B7
:1018A0000E940C0CC82FD0E067E270E0812F0E94EC
:1018B0000C0CDC2FCC279E01282BC901DF91CF9186
:1018C0001F910895FF920F931F93CF93DF93F62EEE
:1018D000C0E0D0E08F2D0E944A0C8C01009721F0CF
:1018E0008F2D0E944A0CEC01C017D10799F7CE0149
:1018F000DF91CF911F910F91FF9008956F927F928A
:101900009F92AF92BF92CF92DF92EF92FF920F938E
:101910001F93CF93DF931F92CDB7DEB7D82E962EAD
:101920003A01590164E270E0892D99830E940C0C00
:10193000E82EF12C65E270E0892D0E940C0CFE2C43
:10194000EE24E82AE60CF71C970137706D2C99817C
:10195000792E690C711C690C711CD301ED91FC91FD
:10196000E20FF31FC901800F911F81309840A0F052
:10197000C12C48E0D42EC21AD30AA601B501CF016A
:101980000E94BD0BA8014C195D09B5016C0D7D1DB0
:10199000F3018081918103C0A801B501CF010E94AC
:1019A000BD0BE00EF11E4F2D64E270E0892D0E9408
:1019B000B10B4E2D65E270E0892D0F90DF91CF9134
:1019C0001F910F91FF90EF90DF90CF90BF90AF905D
:1019D0009F907F906F900C94B10B0F931F93890190
:1019E0009A0140E050E00E947E0C1F910F910895F3
:1019F000CF92DF92EF92FF920F931F93CF93DF93DB
:101A0000EC017A018B016C01C40ED51ECC15DD05ED
:101A1000A9F00E94230B8FE00E941C0B8D2F0E94C7
:101A20001C0B8C2F0E941C0B219680E00E941C0B2B
:101A3000F80181938F010E94250BE8CFC701DF9148
:101A4000CF911F910F91FF90EF90DF90CF9008956D
:101A5000AF92BF92CF92DF92EF92FF920F931F93BC
:101A6000CF93DF9300D0CDB7DEB75A8349835901B6
:101A7000E981FA81F7707C01E60EF11CE60EF11C9B
:101A8000D70118968D919C9119978E0F9F1F9801E1
:101A90002E0F3F1F2130384098F0C12C68E0D62E21
:101AA000CE1ADF0AA601B5010E94F80CA8014C1954
:101AB0005D09B5016C0D7D1DF7018085918502C022
:101AC000A801B5010F900F90DF91CF911F910F9159
:101AD000FF90EF90DF90CF90BF90AF900C94F80CF8
:101AE0008F929F92AF92BF92CF92DF92EF92FF922E
:101AF0000F931F93CF93DF936C01962E5A017901B8
:101B0000802E68E270E0892D0E940C0CC82FD0E076
:101B100069E270E0892D0E940C0CDC2FCC27C82BC9
:101B200087019501AE01692DC6010E94280D811023
:101B30001AC0CE0DDF1D4D2F68E270E0892D0E9486
:101B4000B10B4C2F69E270E0892DDF91CF911F918D
:101B50000F91FF90EF90DF90CF90BF90AF909F904C
:101B60008F900C94B10BDF91CF911F910F91FF904B
:101B7000EF90DF90CF90BF90AF909F908F9008959F
:101B8000CF93C62F61E070E08C2F0E94B10B61E013
:101B900070E08C2F0E940C0C8111F9CFCF91089529
:101BA000CF92DF92EF92FF920F9330E0C12CF2E1DF
:101BB000DF2EFAE7EF2EF12C4C155D056E057F0543
:101BC00040F4F694E794D794C7943F5F3630A1F77A
:101BD00037E041E04327211102C050E701C050E542
:101BE000242F30E03595279523700C70202B252B62
:101BF000FC012083417041830F91FF90EF90DF90B3
:101C0000CF90089590E0982F882744E050E0845FBB
:101C10009B4F0C94BD0B62E070E00C940C0CCF93C6
:101C2000DF93C82FD62F472F64E070E00E94B10BDE
:101C30004D2F65E070E08C2FDF91CF910C94B10BAC
:101C4000462F62E070E00C94B10BCF93DF93C82F66
:101C5000D62F472F60E170E00E94B10B4D2F61E15C
:101C600070E08C2FDF91CF910C94B10B0F931F93E9
:101C7000CF93DF9300D01F92CDB7DEB7182F00E0CF
:101C800021E040E059E06DE370E0CE0101960E9452
:101C9000D00D89819A810E94450863E070E0812F10
:101CA0000E940C0C8B830E945F088B810F900F9019
:101CB0000F90DF91CF911F910F9108950F931F9374
:101CC000CF93DF9300D0CDB7DEB7182F00E021E02F
:101CD00040E059E06DE370E0CE0101960E94D00D26
:101CE00089819A810E94450840E150E0612F82EE8F
:101CF00091E00E94C00D6FEF812F0E94200E0E9484
:101D00005F080F900F90DF91CF911F910F91089571
:101D1000CF92DF92EF92FF920F931F93CF93DF93B7
:101D200000D0CDB7DEB7182FD62E7A01C22E8FEF96
:101D3000860F8530A8F5812F0E945E0E00E021E01D
:101D400040E059E06DE370E0CE0101960E94D00DB5
:101D500089819A810E9445084D2D4C2960E070E0F0
:101D6000812F0E94B10BE114F10411F0B7010AC0F8
:101D70006091F2017091F3016F5F7F4F7093F301F7
:101D80006093F201812F0E940F0E41E050E0612F1D
:101D900082EE91E00E94C00D0E945F0881E001C0C8
:101DA00080E00F900F90DF91CF911F910F91FF90E6
:101DB000EF90DF90CF9008950F931F93CF93DF9311
:101DC00000D0CDB7DEB7182F00E021E040E059E0A9
:101DD0006DE370E0CE0101960E94D00D89819A8159
:101DE0000E94450863E070E0812F0E940C0C833153
:101DF00021F00E945F0880E00AC042E050E0612FBD
:101E000082EE91E00E94C00D0E945F0881E00F9079
:101E10000F90DF91CF911F910F910895CF92DF9294
:101E2000EF92FF920F931F93CF93DF9300D0CDB724
:101E3000DEB7182F7B016A01FB0180818F3F51F4CF
:101E400081818F3F99F482818F3F81F483818F3F1D
:101E500069F430C081110AC0FB018181811106C083
:101E60008281811103C08381882321F1C114D104AF
:101E700009F100E021E040E059E06DE370E0CE01BF
:101E800001960E94D00D89819A810E944508B70170
:101E9000812F0E94020EB601812F0E94250E44E080
:101EA00050E0612F82EE91E00E94C00D0E945F0819
:101EB00081E001C080E00F900F90DF91CF911F91E2
:101EC0000F91FF90EF90DF90CF9008950F931F93A5
:101ED000CF93DF9300D0CDB7DEB7182F00E021E01D
:101EE00040E059E06DE370E0CE0101960E94D00D14
:101EF00089819A810E94450848E050E0612F82EE76
:101F000091E00E94C00D0E945F080F900F90DF913A
:101F1000CF911F910F910895BF92CF92DF92EF92D0
:101F2000FF920F931F93CF93DF9300D01F92CDB7F3
:101F3000DEB7B82E6B017A01413088E0580718F0FF
:101F4000E12C98E0F92E00E021E040E059E06DE35B
:101F500070E0CE0101960E94D00D89819A810E9485
:101F600045086B2D82EE91E00E942E0C8C0163E0FF
:101F700070E08B2D0E940C0C8B830E945F088B817C
:101F8000873111F08C3131F40E94BD110E151F05FF
:101F9000D0F202C0E12CF12C00E021E040E059E059
:101FA0006DE370E0CE0101960E94D00D89819A8187
:101FB0000E9445089701A6016B2D82EE91E00E94D8
:101FC000ED0C40E250E06B2D82EE91E00E94C00DDE
:101FD0008B2D0E940B0E84FD22C063E070E08B2DE0
:101FE0000E940C0C811108C00E945F088B2D0E947A
:101FF0005E0E80E090E01AC00E945F080E94BD1152
:1020000000E021E040E059E06DE370E0CE01019690
:102010000E94D00D89819A810E944508D9CF60E144
:102020008B2D0E94200E0E945F08C7010F900F9019
:102030000F90DF91CF911F910F91FF90EF90DF9064
:10204000CF90BF900895AF92BF92CF92DF92EF9260
:10205000FF920F931F93CF93DF9300D0CDB7DEB7DE
:10206000182F5B016A0100E021E040E059E06DE3D8
:1020700070E0CE0101960E94D00D89819A810E9464
:102080004508612F82EE91E00E94620C7C0100976E
:10209000A1F463E070E0812F0E940C0C843119F1EF
:1020A000882309F121E030E08C3111F420E030E0A8
:1020B000EE24FF24E21AF30A16C0C816D9060CF45F
:1020C00076011E141F047CF400E09701A501612F26
:1020D00082EE91E00E94700D40E450E0612F82EEAC
:1020E00091E00E94C00D0E945F08C7010F900F9001
:1020F000DF91CF911F910F91FF90EF90DF90CF90E4
:10210000BF90AF9008950F931F93CF93DF9300D0AC
:1021100000D0CDB7DEB7182F00E021E040E059E055
:102120006DE370E0CE0101960E94D00D89819A8105
:102130000E944508612F82EE91E00E94620C8B8321
:102140009C830E945F088B819C810F900F900F9061
:102150000F90DF91CF911F910F910895EF92FF9211
:102160000F931F93CF93DF9300D0CDB7DEB7182F17
:102170007B0100E021E040E059E06DE370E0CE013A
:1021800001960E94D00D89819A810E94450801E044
:1021900021E030E0A701612F82EE91E00E94700DF6
:1021A0000E945F0881E090E00F900F90DF91CF9147
:1021B0001F910F91FF90EF90089508959F92AF9215
:1021C000BF92CF92DF92EF92FF920F931F93CF9324
:1021D000DF9300D0CDB7DEB7982E6B015A0179019D
:1021E00000E021E040E059E06DE370E0CE010196AF
:1021F0000E94D00D89819A810E944508692D82EE46
:1022000091E00E942E0C8E159F0530F4692D82EE10
:1022100091E00E942E0C7C0187019501A601692D99
:1022200082EE91E00E947E0C0E945F08C7010F9031
:102230000F90DF91CF911F910F91FF90EF90DF9062
:10224000CF90BF90AF909F900895CF92DF92EF9282
:10225000FF920F931F93CF93DF9300D0CDB7DEB7DC
:10226000182F7B016A01FB018081811109C08181E6
:10227000811106C08281811103C083818823F1F01E
:10228000C114D104D9F000E021E040E059E06DE351
:1022900070E0CE0101960E94D00D89819A810E9442
:1022A0004508B701812F0E94020EB601812F0E94BE
:1022B000250E0E945F0881E090E002C080E090E07F
:1022C0000F900F90DF91CF911F910F91FF90EF90A2
:1022D000DF90CF9008950F931F93CF93DF9300D09B
:1022E000CDB7DEB7182F00E021E040E059E06DE304
:1022F00070E0CE0101960E94D00D89819A810E94E2
:10230000450840E250E0612F82EE91E00E94C00D4E
:10231000812F0E940B0E84FD21C0812F0E940B0E85
:1023200083FF09C068E1812F0E94200E0E945F0890
:1023300080E090E01BC00E945F080E94BD1100E099
:1023400021E040E059E06DE370E0CE0101960E948B
:10235000D00D89819A810E944508DACF60E1812FF2
:102360000E94200E0E945F0881E090E00F900F9085
:10237000DF91CF911F910F91089508951F920F92B1
:102380000FB60F9211242F933F938F939F93AF9388
:10239000BF938091F5019091F601A091F701B09162
:1023A000F8013091F40123E0230F2D3720F401963A
:1023B000A11DB11D05C026E8230F0296A11DB11D68
:1023C0002093F4018093F5019093F601A093F70117
:1023D000B093F8018091F9019091FA01A091FB016D
:1023E000B091FC010196A11DB11D8093F90190935C
:1023F000FA01A093FB01B093FC01BF91AF919F91B3
:102400008F913F912F910F900FBE0F901F901895B5
:102410002FB7F8946091F5017091F6018091F70162
:102420009091F8012FBF08953FB7F8948091F9017A
:102430009091FA01A091FB01B091FC0126B5A89BF7
:1024400005C02F3F19F00196A11DB11D3FBF6627A2
:10245000782F892F9A2F620F711D811D911D42E0E7
:10246000660F771F881F991F4A95D1F70895CF925D
:10247000DF92EF92FF92CF93DF936B017C010E947A
:102480001412EB01C114D104E104F10489F00E949B
:10249000BD110E9414126C1B7D0B683E734090F3BB
:1024A00081E0C81AD108E108F108C851DC4FEACF31
:1024B000DF91CF91FF90EF90DF90CF9008957894C7
:1024C00084B5826084BD84B5816084BD85B5826039
:1024D00085BD85B5816085BDEEE6F0E080818160D7
:1024E0008083E1E8F0E010828081826080838081D7
:1024F00081608083E0E8F0E0808181608083E1EBAF
:10250000F0E0808184608083E0EBF0E08081816096
:102510008083EAE7F0E0808184608083808182604C
:102520008083808181608083808180688083109235
:10253000C1000895833081F028F4813099F0823011
:10254000A1F008958730A9F08830B9F08430D1F433
:10255000809180008F7D03C0809180008F77809371
:102560008000089584B58F7702C084B58F7D84BDC7
:1025700008958091B0008F7703C08091B0008F7D67
:102580008093B0000895CF93DF9390E0FC01E4586E
:10259000FF4F2491FC01E057FF4F8491882349F1BC
:1025A00090E0880F991FFC01E255FF4FA591B4916F
:1025B0008C559F4FFC01C591D4919FB7611108C004
:1025C000F8948C91209582238C93888182230AC071
:1025D000623051F4F8948C91322F309583238C9390
:1025E0008881822B888304C0F8948C91822B8C93F1
:1025F0009FBFDF91CF9108950F931F93CF93DF93E8
:102600001F92CDB7DEB7282F30E0F901E859FF4F10
:102610008491F901E458FF4F1491F901E057FF4FFD
:1026200004910023C9F0882321F069830E949A1243
:102630006981E02FF0E0EE0FFF1FEC55FF4FA591F1
:10264000B4919FB7F8948C91611103C010958123C8
:1026500001C0812B8C939FBF0F90DF91CF911F9171
:102660000F910895FC01808191810C942118CF93E2
:10267000DF93EC0188819981009711F00E94211865
:10268000198218821D821C821B821A82DF91CF91CF
:1026900008950F931F93CF93DF93EC018B016F5F2E
:1026A0007F4F888199810E94B018009731F09983FB
:1026B00088831B830A8381E001C080E0DF91CF9192
:1026C0001F910F910895CF93DF93EC018881998139
:1026D000892B29F08A819B818617970760F4CE01A8
:1026E0000E944913882341F08C819D81892B19F424
:1026F000E881F981108281E0DF91CF910895EF9216
:10270000FF920F931F93CF93DF93EC017B018A011C
:10271000BA010E946313811104C0CE010E943713D5
:1027200007C01D830C83B701888199810E9483199A
:10273000CE01DF91CF911F910F91FF90EF900895FF
:10274000FC0111821082138212821582148261159B
:10275000710559F0FB0101900020E9F7AF014150EC
:102760005109461B570B0C947F130895CF93DF93A9
:10277000EC016115710561F0FB0101900020E9F7A2
:10278000AF0141505109461B570B0E947F1302C0F5
:102790000E943713CE01DF91CF910895EF92FF92FF
:1027A0000F931F93CF93DF93EC017B010C811D816D
:1027B0006115710511F480E016C04115510591F0C5
:1027C000040F151FB8010E9463138823A1F3288109
:1027D00039818C819D81B701820F931F0E948319DB
:1027E0001D830C8381E0DF91CF911F910F91FF90AA
:1027F000EF900895CF93DF9300D0CDB7DEB7698314
:102800001A8241E050E0BE016F5F7F4F0E94CE13FD
:102810000F900F90DF91CF9108951F920F920FB6F6
:102820000F9211242F938F939F93EF93FF93E09137
:102830000D02F0910E028081E0911302F0911402DA
:1028400082FD12C09081809116028F5F8F7320915C
:102850001702821751F0E0911602F0E0E350FE4FAC
:10286000958F8093160201C08081FF91EF919F9117
:102870008F912F910F900FBE0F901F9018951F9260
:102880000F920FB60F9211242F933F934F935F93A4
:102890006F937F938F939F93AF93BF93EF93FF9328
:1028A0008DEF91E00E94ED14FF91EF91BF91AF91F8
:1028B0009F918F917F916F915F914F913F912F9158
:1028C0000F900FBE0F901F9018958DEF91E00E9412
:1028D000B21421E0892B09F420E0822F0895109290
:1028E00000021092FF0188EE93E0A0E0B0E0809338
:1028F000010290930202A0930302B09304028AE7BC
:1029000091E09093FE018093FD0185EC90E090931F
:102910000A028093090284EC90E090930C02809369
:102920000B0280EC90E090930E0280930D0281ECFC
:1029300090E09093100280930F0282EC90E09093CD
:1029400012028093110286EC90E09093140280931F
:10295000130210921602109217021092180210928F
:1029600019020895FC01818D228D90E0805C9F4FBB
:10297000821B91098F7399270895FC01918D828D97
:10298000981731F0828DE80FF11D858D90E0089544
:102990008FEF9FEF0895FC01918D828D981761F064
:1029A000828DDF01A80FB11D5D968C91928D9F5F86
:1029B0009F73928F90E008958FEF9FEF089585E6C3
:1029C00094E1892B49F080E090E0892B29F00E9466
:1029D000651481110C9400000895FC01848DDF01C1
:1029E000A80FB11DA35ABF4F2C91848D90E0019682
:1029F0008F739927848FA689B7892C93A089B18971
:102A00008C9180648C93938D848D981306C002887A
:102A1000F389E02D80818F7D80830895CF93DF93AC
:102A2000EC01888D8823C9F0EA89FB89808185FDC6
:102A300005C0A889B9898C9186FD0FC00FB607FC27
:102A4000F5CF808185FFF2CFA889B9898C9185FF68
:102A5000EDCFCE010E94ED14E7CFDF91CF91089525
:102A6000CF92DF92FF920F931F93CF93DF931F922A
:102A7000CDB7DEB76C0181E0D60158968C9358979C
:102A80005B969C915B975C968C915C97981307C0C2
:102A90005096ED91FC915197808185FD2EC0F601F5
:102AA000038D10E00F5F1F4F0F731127F02EF601FB
:102AB000848DF81211C00FB607FCF9CFD6015096DD
:102AC000ED91FC915197808185FFF1CFC60169831B
:102AD0000E94ED146981EBCF838DE80FF11DE35A5D
:102AE000FF4F6083D6015B960C935B975296ED91F6
:102AF000FC915397808180620CC0D6015696ED916F
:102B0000FC91579760835096ED91FC91519780818D
:102B10008064808381E090E00F90DF91CF911F91DE
:102B20000F91FF90DF90CF900895BF92CF92DF92E8
:102B3000EF92FF92CF93DF93EC016A017B01B22EFB
:102B4000E889F98982E08083411581EE58076105A3
:102B50007105A1F060E079E08DE390E0A7019601B6
:102B60000E94611721503109410951095695479535
:102B700037952795211580E1380798F0E889F9897C
:102B8000108260E874E88EE190E0A70196010E944F
:102B900061172150310941095109569547953795DB
:102BA0002795EC85FD853083EE85FF852083188E83
:102BB000EC89FD89B082EA89FB898081806180830C
:102BC000EA89FB89808188608083EA89FB8980812A
:102BD00080688083EA89FB8980818F7D8083DF9193
:102BE000CF91FF90EF90DF90CF90BF900895AF927C
:102BF000BF92CF92DF92EF92FF920F931F93CF93EA
:102C0000DF936C017B01C0E0D0E000E010E0F60152
:102C1000EC0FFD1F4AE050E06281C7010E944A1795
:102C20005C016EE2C7010E94BD168A0D9B1D080F54
:102C3000191F2196C330D10551F74AE050E0F60143
:102C40006581C7010E944A17800F911FDF91CF91C4
:102C50001F910F91FF90EF90DF90CF90BF90AF90BA
:102C600008952AE831E0FC01318320831282138227
:102C70001482158208950F93FC018AE891E09183F4
:102C8000808362834383248305830F9108952AE818
:102C900031E0FC0131832083FB014081518162815D
:102CA0007381FC0142835383648375830895FB0120
:102CB0004081518162817381FC014283538364832B
:102CC000758308958AE891E090939B0280939A021D
:102CD00010929C0210929D0210929E0210929F02EE
:102CE0000895CF92DF92EF92FF920F931F93CF93AD
:102CF000DF936C017A01EB01E60EF71E00E010E0B5
:102D0000CE15DF0561F06991D601ED91FC9101903E
:102D1000F081E02DC6010995080F191FF1CFC801F8
:102D2000DF91CF911F910F91FF90EF90DF90CF90A7
:102D300008956115710581F0DB010D900020E9F720
:102D4000AD0141505109461B570BDC01ED91FC913F
:102D50000280F381E02D099480E090E00895DC0189
:102D6000ED91FC91DB0114964D915C9115976D915D
:102D70007C910280F381E02D0994DC01ED91FC91BE
:102D80000190F081E02D0994DB01ED91FC91119708
:102D90000190F081E02DBC01CD0109946CE871E057
:102DA0000C9499160F931F93CF93DF93EC010E941D
:102DB000C4168C01CE010E94CE16800F911FDF91A8
:102DC000CF911F910F9108958F929F92AF92BF92D2
:102DD000CF92DF92EF92FF920F931F93CF93DF93E7
:102DE000CDB7DEB7A1970FB6F894DEBF0FBECDBF4B
:102DF0007C01C42EE52FCB01D22E19A221E02D1586
:102E000010F02AE0D22E8E010F5D1F4F8D2C912CD9
:102E1000A12CB12C6C2D7E2FA50194010E9461176D
:102E20008C2DD29E80191124015011098A3014F47E
:102E3000805D01C0895CF801808321153105410561
:102E4000510521F0C22EE32FCA01E4CFB801C7011A
:102E50000E949916A1960FB6F894DEBF0FBECDBFA3
:102E6000DF91CF911F910F91FF90EF90DF90CF9066
:102E7000BF90AF909F908F9008952115310541F438
:102E8000DC01ED91FC910190F081E02D642F09941B
:102E90000C94E4169A01462F50E060E070E00C9428
:102EA0003D1708950E945F120E9451170E94A100D1
:102EB000CFEDD4E10E94F5002097E1F30E94DF14EA
:102EC000F9CFA1E21A2EAA1BBB1BFD010DC0AA1F40
:102ED000BB1FEE1FFF1FA217B307E407F50720F083
:102EE000A21BB30BE40BF50B661F771F881F991FFE
:102EF0001A9469F760957095809590959B01AC0147
:102F0000BD01CF010895EE0FFF1F0590F491E02D54
:102F10000994CF93DF938230910510F482E090E022
:102F2000E091A202F091A30220E030E0A0E0B0E046
:102F3000309739F14081518148175907B8F0481747
:102F4000590771F482819381109729F013969C930D
:102F50008E9312972CC09093A3028093A20227C055
:102F60002115310531F04217530718F0A901DB0193
:102F700001C0EF019A01BD01DF010280F381E02D64
:102F8000D7CF21153105F9F0281B390B2430310535
:102F900080F48A819B816115710521F0FB01938387
:102FA000828304C09093A3028093A202FE01329612
:102FB00044C0FE01E20FF31F819391932250310927
:102FC000398328833AC02091A0023091A102232B9B
:102FD00041F420910201309103013093A10220932A
:102FE000A00220910001309101012115310541F429
:102FF0002DB73EB74091040150910501241B350BBC
:10300000E091A002F091A102E217F307A0F42E1BB9
:103010003F0B2817390778F0AC014E5F5F4F24173C
:10302000350748F04E0F5F1F5093A1024093A00256
:103030008193919302C0E0E0F0E0CF01DF91CF9166
:103040000895CF93DF93009709F487C0FC0132976E
:1030500013821282C091A202D091A302209781F420
:1030600020813181280F391F8091A0029091A10207
:103070008217930779F5F093A102E093A0026DC047
:10308000DE0120E030E0AE17BF0750F412964D91FC
:103090005C9113979D014115510509F1DA01F3CFB8
:1030A000B383A28340815181840F951F8A179B07A8
:1030B00071F48D919C911197840F951F02969183C5
:1030C000808312968D919C9113979383828321150F
:1030D000310529F4F093A302E093A2023EC0D90186
:1030E0001396FC93EE9312974D915D91A40FB51F2B
:1030F000EA17FB0779F480819181840F951F02966E
:10310000D90111969C938E938281938113969C93FF
:103110008E931297E0E0F0E08A819B81009719F08E
:10312000FE01EC01F9CFCE01029628813981820F90
:10313000931F2091A0023091A1022817390769F44A
:10314000309729F41092A3021092A20202C01382B7
:103150001282D093A102C093A002DF91CF91089573
:10316000A0E0B0E0E6EBF8E10C948E19EC01CB01A5
:10317000209719F40E948917B8C0FE01E60FF71FC7
:103180009E0122503109E217F30708F4ACC0D901BF
:103190000D911C91119706171707B8F0053011050E
:1031A00008F49FC0A801445051094617570708F476
:1031B00098C002501109061B170B019311936D93D0
:1031C0007C93CF010E9421188CC05B01A01AB10A28
:1031D0004E01800E911EA091A202B091A302612C1B
:1031E000712C60E070E0109709F449C0A815B9058A
:1031F000C9F5ED90FC901197670142E0C40ED11C17
:10320000CA14DB0478F147018A189B08640142E084
:10321000C40ED11C1296BC9012971396AC91B5E0D7
:10322000CB16D10440F0B282A38391828082D9016F
:103230008D939C9309C00E5F1F4F0E0D1F1DF9014A
:1032400011830083EB2DFA2F6115710531F0DB013D
:103250001396FC93EE93129744C0F093A302E0936D
:10326000A2023FC06D917C9111976616770608F413
:103270003B01BD0112960D90BC91A02DB4CF609181
:10328000A0027091A10268157905E9F46816790623
:10329000D0F440910001509101014115510541F4D4
:1032A0004DB75EB76091040170910501461B570B45
:1032B000E417F507C0F4F093A102E093A002F9012E
:1032C000918380830EC00E9489177C01009759F07A
:1032D000A801BE010E947A19CE010E942118C701DF
:1032E00004C0CE0102C080E090E0CDB7DEB7EEE0D2
:1032F0000C94AA19FB01DC0102C001900D9241500F
:103300005040D8F70895FB01DC0101900D92002098
:10331000E1F708952F923F924F925F926F927F92C2
:103320008F929F92AF92BF92CF92DF92EF92FF92D5
:103330000F931F93CF93DF93CDB7DEB7CA1BDB0B81
:103340000FB6F894DEBF0FBECDBF09942A88398826
:1033500048885F846E847D848C849B84AA84B9842D
:10336000C884DF80EE80FD800C811B81AA81B98139
:10337000CE0FD11D0FB6F894DEBF0FBECDBFED014D
:063380000895F894FFCF50
:103386000000A402800001000000B822060080258B
:10339600FFFFFF000A0D26010A0D26B190A2DA0DE5
:1033A6003C5600C000000000A004C904E304EC047D
:1033B6000A052D05A9053105060506064006B604CB
:1033C60091049404BE049604000000008E06D706FD
:1033D6008A06EB063107A4064A07B606CB06DC07C3
:1033E600D306770714076F067606860600000000E8
:1033F60086094C0A9C090000000030157116B214AB
:10340600CB14BD140E1500000000F7150D0A006E52
:0E341600616E00696E66006F7666002E000023
:00000001FF
